{
  "_format": "hh-sol-artifact-1",
  "contractName": "KingOfHill",
  "sourceName": "contracts/KingOfHill.sol",
  "abi": [
    {
      "inputs": [
        {
          "internalType": "contract ISuperToken",
          "name": "_cashToken",
          "type": "address"
        },
        {
          "internalType": "contract ISuperToken",
          "name": "_gameToken",
          "type": "address"
        },
        {
          "internalType": "int96",
          "name": "_decay",
          "type": "int96"
        }
      ],
      "stateMutability": "nonpayable",
      "type": "constructor"
    },
    {
      "inputs": [],
      "name": "CFA_ID",
      "outputs": [
        {
          "internalType": "bytes32",
          "name": "",
          "type": "bytes32"
        }
      ],
      "stateMutability": "view",
      "type": "function"
    },
    {
      "inputs": [
        {
          "internalType": "contract ISuperToken",
          "name": "_superToken",
          "type": "address"
        },
        {
          "internalType": "address",
          "name": "_agreementClass",
          "type": "address"
        },
        {
          "internalType": "bytes32",
          "name": "",
          "type": "bytes32"
        },
        {
          "internalType": "bytes",
          "name": "_agreementData",
          "type": "bytes"
        },
        {
          "internalType": "bytes",
          "name": "",
          "type": "bytes"
        },
        {
          "internalType": "bytes",
          "name": "ctx",
          "type": "bytes"
        }
      ],
      "name": "afterAgreementCreated",
      "outputs": [
        {
          "internalType": "bytes",
          "name": "newCtx",
          "type": "bytes"
        }
      ],
      "stateMutability": "nonpayable",
      "type": "function"
    },
    {
      "inputs": [
        {
          "internalType": "contract ISuperToken",
          "name": "_superToken",
          "type": "address"
        },
        {
          "internalType": "address",
          "name": "_agreementClass",
          "type": "address"
        },
        {
          "internalType": "bytes32",
          "name": "",
          "type": "bytes32"
        },
        {
          "internalType": "bytes",
          "name": "_agreementData",
          "type": "bytes"
        },
        {
          "internalType": "bytes",
          "name": "",
          "type": "bytes"
        },
        {
          "internalType": "bytes",
          "name": "ctx",
          "type": "bytes"
        }
      ],
      "name": "afterAgreementTerminated",
      "outputs": [
        {
          "internalType": "bytes",
          "name": "newCtx",
          "type": "bytes"
        }
      ],
      "stateMutability": "nonpayable",
      "type": "function"
    },
    {
      "inputs": [
        {
          "internalType": "contract ISuperToken",
          "name": "_superToken",
          "type": "address"
        },
        {
          "internalType": "address",
          "name": "_agreementClass",
          "type": "address"
        },
        {
          "internalType": "bytes32",
          "name": "",
          "type": "bytes32"
        },
        {
          "internalType": "bytes",
          "name": "",
          "type": "bytes"
        },
        {
          "internalType": "bytes",
          "name": "",
          "type": "bytes"
        },
        {
          "internalType": "bytes",
          "name": "",
          "type": "bytes"
        }
      ],
      "name": "afterAgreementUpdated",
      "outputs": [
        {
          "internalType": "bytes",
          "name": "",
          "type": "bytes"
        }
      ],
      "stateMutability": "view",
      "type": "function"
    },
    {
      "inputs": [
        {
          "internalType": "contract ISuperToken",
          "name": "",
          "type": "address"
        },
        {
          "internalType": "address",
          "name": "",
          "type": "address"
        },
        {
          "internalType": "bytes32",
          "name": "",
          "type": "bytes32"
        },
        {
          "internalType": "bytes",
          "name": "",
          "type": "bytes"
        },
        {
          "internalType": "bytes",
          "name": "",
          "type": "bytes"
        }
      ],
      "name": "beforeAgreementCreated",
      "outputs": [
        {
          "internalType": "bytes",
          "name": "",
          "type": "bytes"
        }
      ],
      "stateMutability": "view",
      "type": "function"
    },
    {
      "inputs": [
        {
          "internalType": "contract ISuperToken",
          "name": "",
          "type": "address"
        },
        {
          "internalType": "address",
          "name": "",
          "type": "address"
        },
        {
          "internalType": "bytes32",
          "name": "",
          "type": "bytes32"
        },
        {
          "internalType": "bytes",
          "name": "",
          "type": "bytes"
        },
        {
          "internalType": "bytes",
          "name": "",
          "type": "bytes"
        }
      ],
      "name": "beforeAgreementTerminated",
      "outputs": [
        {
          "internalType": "bytes",
          "name": "",
          "type": "bytes"
        }
      ],
      "stateMutability": "view",
      "type": "function"
    },
    {
      "inputs": [
        {
          "internalType": "contract ISuperToken",
          "name": "",
          "type": "address"
        },
        {
          "internalType": "address",
          "name": "",
          "type": "address"
        },
        {
          "internalType": "bytes32",
          "name": "",
          "type": "bytes32"
        },
        {
          "internalType": "bytes",
          "name": "",
          "type": "bytes"
        },
        {
          "internalType": "bytes",
          "name": "",
          "type": "bytes"
        }
      ],
      "name": "beforeAgreementUpdated",
      "outputs": [
        {
          "internalType": "bytes",
          "name": "",
          "type": "bytes"
        }
      ],
      "stateMutability": "view",
      "type": "function"
    },
    {
      "inputs": [],
      "name": "cashToken",
      "outputs": [
        {
          "internalType": "contract ISuperToken",
          "name": "",
          "type": "address"
        }
      ],
      "stateMutability": "view",
      "type": "function"
    },
    {
      "inputs": [],
      "name": "decay",
      "outputs": [
        {
          "internalType": "int96",
          "name": "",
          "type": "int96"
        }
      ],
      "stateMutability": "view",
      "type": "function"
    },
    {
      "inputs": [],
      "name": "gameToken",
      "outputs": [
        {
          "internalType": "contract ISuperToken",
          "name": "",
          "type": "address"
        }
      ],
      "stateMutability": "view",
      "type": "function"
    },
    {
      "inputs": [],
      "name": "host",
      "outputs": [
        {
          "internalType": "contract ISuperfluid",
          "name": "",
          "type": "address"
        }
      ],
      "stateMutability": "view",
      "type": "function"
    },
    {
      "inputs": [],
      "name": "king",
      "outputs": [
        {
          "internalType": "address",
          "name": "",
          "type": "address"
        }
      ],
      "stateMutability": "view",
      "type": "function"
    },
    {
      "inputs": [
        {
          "internalType": "int96",
          "name": "cashFlowRate",
          "type": "int96"
        }
      ],
      "name": "rate",
      "outputs": [
        {
          "internalType": "int96",
          "name": "",
          "type": "int96"
        }
      ],
      "stateMutability": "nonpayable",
      "type": "function"
    }
  ],
  "bytecode": "0x6101206040523480156200001257600080fd5b50604051620037863803806200378683398181016040528101906200003891906200032a565b8173ffffffffffffffffffffffffffffffffffffffff1660c08173ffffffffffffffffffffffffffffffffffffffff16815250508273ffffffffffffffffffffffffffffffffffffffff1660a08173ffffffffffffffffffffffffffffffffffffffff16815250508273ffffffffffffffffffffffffffffffffffffffff166320bc44256040518163ffffffff1660e01b8152600401602060405180830381865afa158015620000ec573d6000803e3d6000fd5b505050506040513d601f19601f82011682018060405250810190620001129190620003b7565b73ffffffffffffffffffffffffffffffffffffffff1660808173ffffffffffffffffffffffffffffffffffffffff1681525050670de0b6b3a7640000600b0b61010081600b0b81525050806000806101000a8154816bffffffffffffffffffffffff0219169083600b0b6bffffffffffffffffffffffff1602179055504260e08181525050336000600c6101000a81548173ffffffffffffffffffffffffffffffffffffffff021916908373ffffffffffffffffffffffffffffffffffffffff16021790555060006410000000006404000000006401000000006001171717905060805173ffffffffffffffffffffffffffffffffffffffff1663ad3915c8826040518263ffffffff1660e01b815260040162000230919062000404565b600060405180830381600087803b1580156200024b57600080fd5b505af115801562000260573d6000803e3d6000fd5b505050505050505062000421565b600080fd5b600073ffffffffffffffffffffffffffffffffffffffff82169050919050565b6000620002a08262000273565b9050919050565b6000620002b48262000293565b9050919050565b620002c681620002a7565b8114620002d257600080fd5b50565b600081519050620002e681620002bb565b92915050565b600081600b0b9050919050565b6200030481620002ec565b81146200031057600080fd5b50565b6000815190506200032481620002f9565b92915050565b6000806000606084860312156200034657620003456200026e565b5b60006200035686828701620002d5565b93505060206200036986828701620002d5565b92505060406200037c8682870162000313565b9150509250925092565b620003918162000293565b81146200039d57600080fd5b50565b600081519050620003b18162000386565b92915050565b600060208284031215620003d057620003cf6200026e565b5b6000620003e084828501620003a0565b91505092915050565b6000819050919050565b620003fe81620003e9565b82525050565b60006020820190506200041b6000830184620003f3565b92915050565b60805160a05160c05160e0516101005161326362000523600039600061097d015260006109470152600081816106480152818161090a01528181610c1201528181610df401528181610e4201528181610ef401528181610f6b01526112ec0152600081816105ef015281816106d001528181610747015281816107c1015281816108e601528181610b6701528181610bc601528181610c8401528181610d0101528181610d7e01528181610fde0152818161104e0152818161109d015281816110e601528181611123015281816112970152818161156e01526115b80152600081816103920152818161049a01528181610a7e015261127101526132636000f3fe608060405234801561001057600080fd5b50600436106100cf5760003560e01c8063884d1f401161008c578063c480e5ae11610066578063c480e5ae1461023c578063cc181ca81461026c578063d86ed3e51461028a578063f437bc59146102ba576100cf565b8063884d1f40146101d0578063a722468714610200578063c3dfdae61461021e576100cf565b8063215eed02146100d4578063230dbd29146100f257806330d9c9151461012257806353c11f991461015257806354fac919146101825780635f9e7d77146101a0575b600080fd5b6100dc6102d8565b6040516100e99190611f09565b60405180910390f35b61010c60048036038101906101079190612065565b6102fc565b60405161011991906121ed565b60405180910390f35b61013c6004803603810190610137919061220f565b610459565b60405161014991906121ed565b60405180910390f35b61016c60048036038101906101679190612065565b610496565b60405161017991906121ed565b60405180910390f35b61018a610859565b60405161019791906122e7565b60405180910390f35b6101ba60048036038101906101b5919061220f565b61086a565b6040516101c791906121ed565b60405180910390f35b6101ea60048036038101906101e5919061220f565b6108a7565b6040516101f791906121ed565b60405180910390f35b6102086108e4565b6040516102159190612361565b60405180910390f35b610226610908565b6040516102339190612361565b60405180910390f35b610256600480360381019061025191906123a8565b61092c565b60405161026391906122e7565b60405180910390f35b6102746109c2565b60405161028191906123e4565b60405180910390f35b6102a4600480360381019061029f9190612065565b6109e8565b6040516102b191906121ed565b60405180910390f35b6102c261126f565b6040516102cf9190612420565b60405180910390f35b7fa9214cc96615e0085d3bb077758db69497dc2dce3b2b1e97bc93c3d18d83efd381565b6060898961030982611293565b610348576040517f08c379a000000000000000000000000000000000000000000000000000000000815260040161033f90612498565b60405180910390fd5b61035181611341565b610390576040517f08c379a00000000000000000000000000000000000000000000000000000000081526004016103879061252a565b60405180910390fd5b7f000000000000000000000000000000000000000000000000000000000000000073ffffffffffffffffffffffffffffffffffffffff163373ffffffffffffffffffffffffffffffffffffffff161461041e576040517f08c379a000000000000000000000000000000000000000000000000000000000815260040161041590612596565b60405180910390fd5b6040517f08c379a000000000000000000000000000000000000000000000000000000000815260040161045090612602565b60405180910390fd5b60606040517f08c379a000000000000000000000000000000000000000000000000000000000815260040161048d90612694565b60405180910390fd5b60607f000000000000000000000000000000000000000000000000000000000000000073ffffffffffffffffffffffffffffffffffffffff163373ffffffffffffffffffffffffffffffffffffffff1614610526576040517f08c379a000000000000000000000000000000000000000000000000000000000815260040161051d90612596565b60405180910390fd5b61052f89611341565b1580610541575061053f8a611293565b155b156105925782828080601f016020809104026020016040519081016040528093929190818152602001838380828437600081840152601f19601f82011690508083019250505050505050905061084c565b82828080601f016020809104026020016040519081016040528093929190818152602001838380828437600081840152601f19601f820116905080830192505050505050509050600087878101906105ea91906126f2565b5090507f000000000000000000000000000000000000000000000000000000000000000073ffffffffffffffffffffffffffffffffffffffff168b73ffffffffffffffffffffffffffffffffffffffff16036107975761068d3082847f000000000000000000000000000000000000000000000000000000000000000073ffffffffffffffffffffffffffffffffffffffff166113db909392919063ffffffff16565b91506000610699611542565b9050600081600b0b1461071d576107156000600c9054906101000a900473ffffffffffffffffffffffffffffffffffffffff1682857f000000000000000000000000000000000000000000000000000000000000000073ffffffffffffffffffffffffffffffffffffffff16611626909392919063ffffffff16565b925082610790565b61078c306000600c9054906101000a900473ffffffffffffffffffffffffffffffffffffffff16857f000000000000000000000000000000000000000000000000000000000000000073ffffffffffffffffffffffffffffffffffffffff166113db909392919063ffffffff16565b9250825b505061084a565b610806306000600c9054906101000a900473ffffffffffffffffffffffffffffffffffffffff16847f000000000000000000000000000000000000000000000000000000000000000073ffffffffffffffffffffffffffffffffffffffff166113db909392919063ffffffff16565b9150600080600c6101000a81548173ffffffffffffffffffffffffffffffffffffffff021916908373ffffffffffffffffffffffffffffffffffffffff1602179055505b505b9998505050505050505050565b60008054906101000a9004600b0b81565b60606040517f08c379a000000000000000000000000000000000000000000000000000000000815260040161089e906127a4565b60405180910390fd5b60606040517f08c379a00000000000000000000000000000000000000000000000000000000081526004016108db90612836565b60405180910390fd5b7f000000000000000000000000000000000000000000000000000000000000000081565b7f000000000000000000000000000000000000000000000000000000000000000081565b6000670de0b6b3a764000060008054906101000a9004600b0b7f000000000000000000000000000000000000000000000000000000000000000042610971919061288f565b61097b91906128c3565b7f00000000000000000000000000000000000000000000000000000000000000006109a691906129b2565b836109b191906128c3565b6109bb9190612a61565b9050919050565b6000600c9054906101000a900473ffffffffffffffffffffffffffffffffffffffff1681565b606089896109f582611293565b610a34576040517f08c379a0000000000000000000000000000000000000000000000000000000008152600401610a2b90612498565b60405180910390fd5b610a3d81611341565b610a7c576040517f08c379a0000000000000000000000000000000000000000000000000000000008152600401610a739061252a565b60405180910390fd5b7f000000000000000000000000000000000000000000000000000000000000000073ffffffffffffffffffffffffffffffffffffffff163373ffffffffffffffffffffffffffffffffffffffff1614610b0a576040517f08c379a0000000000000000000000000000000000000000000000000000000008152600401610b0190612596565b60405180910390fd5b84848080601f016020809104026020016040519081016040528093929190818152602001838380828437600081840152601f19601f82011690508083019250505050505050925060008989810190610b6291906126f2565b5090507f000000000000000000000000000000000000000000000000000000000000000073ffffffffffffffffffffffffffffffffffffffff168d73ffffffffffffffffffffffffffffffffffffffff1603610dcb57610c5781610c0f610c0a84307f000000000000000000000000000000000000000000000000000000000000000073ffffffffffffffffffffffffffffffffffffffff1661178d9092919063ffffffff16565b61092c565b867f000000000000000000000000000000000000000000000000000000000000000073ffffffffffffffffffffffffffffffffffffffff1661182d909392919063ffffffff16565b93506000610cc8306000600c9054906101000a900473ffffffffffffffffffffffffffffffffffffffff167f000000000000000000000000000000000000000000000000000000000000000073ffffffffffffffffffffffffffffffffffffffff1661178d9092919063ffffffff16565b600b0b03610d4d57610d466000600c9054906101000a900473ffffffffffffffffffffffffffffffffffffffff16610cfe611542565b867f000000000000000000000000000000000000000000000000000000000000000073ffffffffffffffffffffffffffffffffffffffff1661182d909392919063ffffffff16565b9350610dc6565b610dc36000600c9054906101000a900473ffffffffffffffffffffffffffffffffffffffff16610d7b611542565b867f000000000000000000000000000000000000000000000000000000000000000073ffffffffffffffffffffffffffffffffffffffff16611626909392919063ffffffff16565b93505b61125f565b610e386000600c9054906101000a900473ffffffffffffffffffffffffffffffffffffffff16307f000000000000000000000000000000000000000000000000000000000000000073ffffffffffffffffffffffffffffffffffffffff1661178d9092919063ffffffff16565b600b0b610e8682307f000000000000000000000000000000000000000000000000000000000000000073ffffffffffffffffffffffffffffffffffffffff1661178d9092919063ffffffff16565b600b0b13610ec9576040517f08c379a0000000000000000000000000000000000000000000000000000000008152600401610ec090612b17565b60405180910390fd5b6000610f386000600c9054906101000a900473ffffffffffffffffffffffffffffffffffffffff16307f000000000000000000000000000000000000000000000000000000000000000073ffffffffffffffffffffffffffffffffffffffff1661178d9092919063ffffffff16565b600b0b1315610fb357610fb06000600c9054906101000a900473ffffffffffffffffffffffffffffffffffffffff1630867f000000000000000000000000000000000000000000000000000000000000000073ffffffffffffffffffffffffffffffffffffffff166113db909392919063ffffffff16565b93505b6000611022306000600c9054906101000a900473ffffffffffffffffffffffffffffffffffffffff167f000000000000000000000000000000000000000000000000000000000000000073ffffffffffffffffffffffffffffffffffffffff1661178d9092919063ffffffff16565b9050611093306000600c9054906101000a900473ffffffffffffffffffffffffffffffffffffffff16877f000000000000000000000000000000000000000000000000000000000000000073ffffffffffffffffffffffffffffffffffffffff166113db909392919063ffffffff16565b94506110e28282877f000000000000000000000000000000000000000000000000000000000000000073ffffffffffffffffffffffffffffffffffffffff1661182d909392919063ffffffff16565b94507f000000000000000000000000000000000000000000000000000000000000000073ffffffffffffffffffffffffffffffffffffffff1663a9059cbb837f000000000000000000000000000000000000000000000000000000000000000073ffffffffffffffffffffffffffffffffffffffff166370a08231306040518263ffffffff1660e01b815260040161117a91906123e4565b602060405180830381865afa158015611197573d6000803e3d6000fd5b505050506040513d601f19601f820116820180604052508101906111bb9190612b63565b6040518363ffffffff1660e01b81526004016111d8929190612b9f565b6020604051808303816000875af11580156111f7573d6000803e3d6000fd5b505050506040513d601f19601f8201168201806040525081019061121b9190612c00565b50816000600c6101000a81548173ffffffffffffffffffffffffffffffffffffffff021916908373ffffffffffffffffffffffffffffffffffffffff160217905550505b5050509998505050505050505050565b7f000000000000000000000000000000000000000000000000000000000000000081565b60007f000000000000000000000000000000000000000000000000000000000000000073ffffffffffffffffffffffffffffffffffffffff168273ffffffffffffffffffffffffffffffffffffffff16148061133a57507f000000000000000000000000000000000000000000000000000000000000000073ffffffffffffffffffffffffffffffffffffffff168273ffffffffffffffffffffffffffffffffffffffff16145b9050919050565b60007fa9214cc96615e0085d3bb077758db69497dc2dce3b2b1e97bc93c3d18d83efd38273ffffffffffffffffffffffffffffffffffffffff16637730599e6040518163ffffffff1660e01b8152600401602060405180830381865afa1580156113af573d6000803e3d6000fd5b505050506040513d601f19601f820116820180604052508101906113d39190612c42565b149050919050565b60606000806113e987611994565b915091508173ffffffffffffffffffffffffffffffffffffffff16634329d293828373ffffffffffffffffffffffffffffffffffffffff1663b4b333c68b8b8b600067ffffffffffffffff81111561144457611443612c6f565b5b6040519080825280601f01601f1916602001820160405280156114765781602001600182028036833780820191505090505b5060405160240161148a9493929190612c9e565b604051602081830303815290604052915060e01b6020820180517bffffffffffffffffffffffffffffffffffffffffffffffffffffffff8381831617835250505050876040518463ffffffff1660e01b81526004016114eb93929190612d57565b6000604051808303816000875af115801561150a573d6000803e3d6000fd5b505050506040513d6000823e3d601f19601f820116820180604052508101906115339190612ea1565b50809350505050949350505050565b6000806115b2306000600c9054906101000a900473ffffffffffffffffffffffffffffffffffffffff167f000000000000000000000000000000000000000000000000000000000000000073ffffffffffffffffffffffffffffffffffffffff1661178d9092919063ffffffff16565b6115fb307f000000000000000000000000000000000000000000000000000000000000000073ffffffffffffffffffffffffffffffffffffffff16611c1b90919063ffffffff16565b6116059190612f19565b90506064605a8261161691906128c3565b6116209190612a61565b91505090565b606060008061163487611994565b915091508173ffffffffffffffffffffffffffffffffffffffff16634329d293828373ffffffffffffffffffffffffffffffffffffffff166350209a628b8b8b600067ffffffffffffffff81111561168f5761168e612c6f565b5b6040519080825280601f01601f1916602001820160405280156116c15781602001600182028036833780820191505090505b506040516024016116d59493929190612f99565b604051602081830303815290604052915060e01b6020820180517bffffffffffffffffffffffffffffffffffffffffffffffffffffffff8381831617835250505050876040518463ffffffff1660e01b815260040161173693929190612d57565b6000604051808303816000875af1158015611755573d6000803e3d6000fd5b505050506040513d6000823e3d601f19601f8201168201806040525081019061177e9190612ea1565b50809350505050949350505050565b60008061179985611caf565b9150508073ffffffffffffffffffffffffffffffffffffffff1663e6a1e8888686866040518463ffffffff1660e01b81526004016117d993929190612fe5565b608060405180830381865afa1580156117f6573d6000803e3d6000fd5b505050506040513d601f19601f8201168201806040525081019061181a9190613031565b9091925090505080925050509392505050565b606060008061183b87611994565b915091508173ffffffffffffffffffffffffffffffffffffffff16634329d293828373ffffffffffffffffffffffffffffffffffffffff166362fc305e8b8b8b600067ffffffffffffffff81111561189657611895612c6f565b5b6040519080825280601f01601f1916602001820160405280156118c85781602001600182028036833780820191505090505b506040516024016118dc9493929190612f99565b604051602081830303815290604052915060e01b6020820180517bffffffffffffffffffffffffffffffffffffffffffffffffffffffff8381831617835250505050876040518463ffffffff1660e01b815260040161193d93929190612d57565b6000604051808303816000875af115801561195c573d6000803e3d6000fd5b505050506040513d6000823e3d601f19601f820116820180604052508101906119859190612ea1565b50809350505050949350505050565b6000807f65599bf746e17a00ea62e3610586992d88101b78eec3cf380706621fb97ea8375491507fb969d79d88acd02d04ed7ee7d43b949e7daf093d363abcfbbc43dfdfd1ce969a549050600073ffffffffffffffffffffffffffffffffffffffff168173ffffffffffffffffffffffffffffffffffffffff1603611b9c57600073ffffffffffffffffffffffffffffffffffffffff168273ffffffffffffffffffffffffffffffffffffffff1603611ab9578273ffffffffffffffffffffffffffffffffffffffff166320bc44256040518163ffffffff1660e01b8152600401602060405180830381865afa158015611a92573d6000803e3d6000fd5b505050506040513d601f19601f82011682018060405250810190611ab691906130ad565b91505b8173ffffffffffffffffffffffffffffffffffffffff1663b6d200de7fa9214cc96615e0085d3bb077758db69497dc2dce3b2b1e97bc93c3d18d83efd36040518263ffffffff1660e01b8152600401611b129190613122565b602060405180830381865afa158015611b2f573d6000803e3d6000fd5b505050506040513d601f19601f82011682018060405250810190611b53919061317b565b9050817f65599bf746e17a00ea62e3610586992d88101b78eec3cf380706621fb97ea83755807fb969d79d88acd02d04ed7ee7d43b949e7daf093d363abcfbbc43dfdfd1ce969a555b600073ffffffffffffffffffffffffffffffffffffffff168273ffffffffffffffffffffffffffffffffffffffff1603611bd957611bd86131a8565b5b600073ffffffffffffffffffffffffffffffffffffffff168173ffffffffffffffffffffffffffffffffffffffff1603611c1657611c156131a8565b5b915091565b600080611c2784611caf565b9150508073ffffffffffffffffffffffffffffffffffffffff1663e8e7e2d185856040518363ffffffff1660e01b8152600401611c659291906131d7565b602060405180830381865afa158015611c82573d6000803e3d6000fd5b505050506040513d601f19601f82011682018060405250810190611ca69190613200565b91505092915050565b6000807f65599bf746e17a00ea62e3610586992d88101b78eec3cf380706621fb97ea8375491507fb969d79d88acd02d04ed7ee7d43b949e7daf093d363abcfbbc43dfdfd1ce969a549050600073ffffffffffffffffffffffffffffffffffffffff168173ffffffffffffffffffffffffffffffffffffffff1603611e7157600073ffffffffffffffffffffffffffffffffffffffff168273ffffffffffffffffffffffffffffffffffffffff1603611dd4578273ffffffffffffffffffffffffffffffffffffffff166320bc44256040518163ffffffff1660e01b8152600401602060405180830381865afa158015611dad573d6000803e3d6000fd5b505050506040513d601f19601f82011682018060405250810190611dd191906130ad565b91505b8173ffffffffffffffffffffffffffffffffffffffff1663b6d200de7fa9214cc96615e0085d3bb077758db69497dc2dce3b2b1e97bc93c3d18d83efd36040518263ffffffff1660e01b8152600401611e2d9190613122565b602060405180830381865afa158015611e4a573d6000803e3d6000fd5b505050506040513d601f19601f82011682018060405250810190611e6e919061317b565b90505b600073ffffffffffffffffffffffffffffffffffffffff168273ffffffffffffffffffffffffffffffffffffffff1603611eae57611ead6131a8565b5b600073ffffffffffffffffffffffffffffffffffffffff168173ffffffffffffffffffffffffffffffffffffffff1603611eeb57611eea6131a8565b5b915091565b6000819050919050565b611f0381611ef0565b82525050565b6000602082019050611f1e6000830184611efa565b92915050565b6000604051905090565b600080fd5b600080fd5b600073ffffffffffffffffffffffffffffffffffffffff82169050919050565b6000611f6382611f38565b9050919050565b6000611f7582611f58565b9050919050565b611f8581611f6a565b8114611f9057600080fd5b50565b600081359050611fa281611f7c565b92915050565b611fb181611f58565b8114611fbc57600080fd5b50565b600081359050611fce81611fa8565b92915050565b611fdd81611ef0565b8114611fe857600080fd5b50565b600081359050611ffa81611fd4565b92915050565b600080fd5b600080fd5b600080fd5b60008083601f84011261202557612024612000565b5b8235905067ffffffffffffffff81111561204257612041612005565b5b60208301915083600182028301111561205e5761205d61200a565b5b9250929050565b600080600080600080600080600060c08a8c03121561208757612086611f2e565b5b60006120958c828d01611f93565b99505060206120a68c828d01611fbf565b98505060406120b78c828d01611feb565b97505060608a013567ffffffffffffffff8111156120d8576120d7611f33565b5b6120e48c828d0161200f565b965096505060808a013567ffffffffffffffff81111561210757612106611f33565b5b6121138c828d0161200f565b945094505060a08a013567ffffffffffffffff81111561213657612135611f33565b5b6121428c828d0161200f565b92509250509295985092959850929598565b600081519050919050565b600082825260208201905092915050565b60005b8381101561218e578082015181840152602081019050612173565b8381111561219d576000848401525b50505050565b6000601f19601f8301169050919050565b60006121bf82612154565b6121c9818561215f565b93506121d9818560208601612170565b6121e2816121a3565b840191505092915050565b6000602082019050818103600083015261220781846121b4565b905092915050565b600080600080600080600060a0888a03121561222e5761222d611f2e565b5b600061223c8a828b01611f93565b975050602061224d8a828b01611fbf565b965050604061225e8a828b01611feb565b955050606088013567ffffffffffffffff81111561227f5761227e611f33565b5b61228b8a828b0161200f565b9450945050608088013567ffffffffffffffff8111156122ae576122ad611f33565b5b6122ba8a828b0161200f565b925092505092959891949750929550565b600081600b0b9050919050565b6122e1816122cb565b82525050565b60006020820190506122fc60008301846122d8565b92915050565b6000819050919050565b600061232761232261231d84611f38565b612302565b611f38565b9050919050565b60006123398261230c565b9050919050565b600061234b8261232e565b9050919050565b61235b81612340565b82525050565b60006020820190506123766000830184612352565b92915050565b612385816122cb565b811461239057600080fd5b50565b6000813590506123a28161237c565b92915050565b6000602082840312156123be576123bd611f2e565b5b60006123cc84828501612393565b91505092915050565b6123de81611f58565b82525050565b60006020820190506123f960008301846123d5565b92915050565b600061240a8261232e565b9050919050565b61241a816123ff565b82525050565b60006020820190506124356000830184612411565b92915050565b600082825260208201905092915050565b7f5265646972656374416c6c3a206e6f7420616363657074656420746f6b656e00600082015250565b6000612482601f8361243b565b915061248d8261244c565b602082019050919050565b600060208201905081810360008301526124b181612475565b9050919050565b7f5265646972656374416c6c3a206f6e6c7920434641763120737570706f72746560008201527f6400000000000000000000000000000000000000000000000000000000000000602082015250565b600061251460218361243b565b915061251f826124b8565b604082019050919050565b6000602082019050818103600083015261254381612507565b9050919050565b7f4f6e6c7920686f73742063616e2063616c6c2063616c6c6261636b0000000000600082015250565b6000612580601b8361243b565b915061258b8261254a565b602082019050919050565b600060208201905081810360008301526125af81612573565b9050919050565b7f63616e27742075706461746520736f7272792062796500000000000000000000600082015250565b60006125ec60168361243b565b91506125f7826125b6565b602082019050919050565b6000602082019050818103600083015261261b816125df565b9050919050565b7f556e737570706f727465642063616c6c6261636b202d204265666f726520416760008201527f7265656d656e7420437265617465640000000000000000000000000000000000602082015250565b600061267e602f8361243b565b915061268982612622565b604082019050919050565b600060208201905081810360008301526126ad81612671565b9050919050565b60006126bf82611f38565b9050919050565b6126cf816126b4565b81146126da57600080fd5b50565b6000813590506126ec816126c6565b92915050565b6000806040838503121561270957612708611f2e565b5b6000612717858286016126dd565b9250506020612728858286016126dd565b9150509250929050565b7f556e737570706f727465642063616c6c6261636b202d20204265666f7265204160008201527f677265656d656e74205465726d696e6174656400000000000000000000000000602082015250565b600061278e60338361243b565b915061279982612732565b604082019050919050565b600060208201905081810360008301526127bd81612781565b9050919050565b7f556e737570706f727465642063616c6c6261636b202d204265666f726520416760008201527f7265656d656e7420757064617465640000000000000000000000000000000000602082015250565b6000612820602f8361243b565b915061282b826127c4565b604082019050919050565b6000602082019050818103600083015261284f81612813565b9050919050565b6000819050919050565b7f4e487b7100000000000000000000000000000000000000000000000000000000600052601160045260246000fd5b600061289a82612856565b91506128a583612856565b9250828210156128b8576128b7612860565b5b828203905092915050565b60006128ce826122cb565b91506128d9836122cb565b9250826b7fffffffffffffffffffffff048211600084136000841316161561290457612903612860565b5b817fffffffffffffffffffffffffffffffffffffffff800000000000000000000000058312600084126000841316161561294157612940612860565b5b827fffffffffffffffffffffffffffffffffffffffff800000000000000000000000058212600084136000841216161561297e5761297d612860565b5b826b7fffffffffffffffffffffff05821260008412600084121616156129a7576129a6612860565b5b828202905092915050565b60006129bd826122cb565b91506129c8836122cb565b9250827fffffffffffffffffffffffffffffffffffffffff80000000000000000000000001821260008412151615612a0357612a02612860565b5b826b7fffffffffffffffffffffff018213600084121615612a2757612a26612860565b5b828203905092915050565b7f4e487b7100000000000000000000000000000000000000000000000000000000600052601260045260246000fd5b6000612a6c826122cb565b9150612a77836122cb565b925082612a8757612a86612a32565b5b600160000383147fffffffffffffffffffffffffffffffffffffffff80000000000000000000000083141615612ac057612abf612860565b5b828205905092915050565b7f73656e64206d6f726520796f7520706c65620000000000000000000000000000600082015250565b6000612b0160128361243b565b9150612b0c82612acb565b602082019050919050565b60006020820190508181036000830152612b3081612af4565b9050919050565b612b4081612856565b8114612b4b57600080fd5b50565b600081519050612b5d81612b37565b92915050565b600060208284031215612b7957612b78611f2e565b5b6000612b8784828501612b4e565b91505092915050565b612b9981612856565b82525050565b6000604082019050612bb460008301856123d5565b612bc16020830184612b90565b9392505050565b60008115159050919050565b612bdd81612bc8565b8114612be857600080fd5b50565b600081519050612bfa81612bd4565b92915050565b600060208284031215612c1657612c15611f2e565b5b6000612c2484828501612beb565b91505092915050565b600081519050612c3c81611fd4565b92915050565b600060208284031215612c5857612c57611f2e565b5b6000612c6684828501612c2d565b91505092915050565b7f4e487b7100000000000000000000000000000000000000000000000000000000600052604160045260246000fd5b6000608082019050612cb36000830187612352565b612cc060208301866123d5565b612ccd60408301856123d5565b8181036060830152612cdf81846121b4565b905095945050505050565b6000612cf58261232e565b9050919050565b612d0581612cea565b82525050565b7f3078000000000000000000000000000000000000000000000000000000000000600082015250565b6000612d4160028361215f565b9150612d4c82612d0b565b602082019050919050565b6000608082019050612d6c6000830186612cfc565b8181036020830152612d7e81856121b4565b90508181036040830152612d9181612d34565b90508181036060830152612da581846121b4565b9050949350505050565b600080fd5b612dbd826121a3565b810181811067ffffffffffffffff82111715612ddc57612ddb612c6f565b5b80604052505050565b6000612def611f24565b9050612dfb8282612db4565b919050565b600067ffffffffffffffff821115612e1b57612e1a612c6f565b5b612e24826121a3565b9050602081019050919050565b6000612e44612e3f84612e00565b612de5565b905082815260208101848484011115612e6057612e5f612daf565b5b612e6b848285612170565b509392505050565b600082601f830112612e8857612e87612000565b5b8151612e98848260208601612e31565b91505092915050565b60008060408385031215612eb857612eb7611f2e565b5b600083015167ffffffffffffffff811115612ed657612ed5611f33565b5b612ee285828601612e73565b925050602083015167ffffffffffffffff811115612f0357612f02611f33565b5b612f0f85828601612e73565b9150509250929050565b6000612f24826122cb565b9150612f2f836122cb565b9250816b7fffffffffffffffffffffff03831360008312151615612f5657612f55612860565b5b817fffffffffffffffffffffffffffffffffffffffff800000000000000000000000038312600083121615612f8e57612f8d612860565b5b828201905092915050565b6000608082019050612fae6000830187612352565b612fbb60208301866123d5565b612fc860408301856122d8565b8181036060830152612fda81846121b4565b905095945050505050565b6000606082019050612ffa6000830186612352565b61300760208301856123d5565b61301460408301846123d5565b949350505050565b60008151905061302b8161237c565b92915050565b6000806000806080858703121561304b5761304a611f2e565b5b600061305987828801612b4e565b945050602061306a8782880161301c565b935050604061307b87828801612b4e565b925050606061308c87828801612b4e565b91505092959194509250565b6000815190506130a781611fa8565b92915050565b6000602082840312156130c3576130c2611f2e565b5b60006130d184828501613098565b91505092915050565b6000819050919050565b60008160001b9050919050565b600061310c613107613102846130da565b6130e4565b611ef0565b9050919050565b61311c816130f1565b82525050565b60006020820190506131376000830184613113565b92915050565b600061314882611f58565b9050919050565b6131588161313d565b811461316357600080fd5b50565b6000815190506131758161314f565b92915050565b60006020828403121561319157613190611f2e565b5b600061319f84828501613166565b91505092915050565b7f4e487b7100000000000000000000000000000000000000000000000000000000600052600160045260246000fd5b60006040820190506131ec6000830185612352565b6131f960208301846123d5565b9392505050565b60006020828403121561321657613215611f2e565b5b60006132248482850161301c565b9150509291505056fea2646970667358221220d45f4e016c0319e94f01dad85a469b8af04e5785488ca741053bb8adb3b2abd664736f6c634300080e0033",
  "linkReferences": {},
  "deployedLinkReferences": {}
}