{
  "_format": "hh-sol-artifact-1",
  "contractName": "KingOfHill",
  "sourceName": "contracts/KingOfHill.sol",
  "abi": [
    {
      "inputs": [
        {
          "internalType": "contract ISuperToken",
          "name": "_cashToken",
          "type": "address"
        },
        {
          "internalType": "contract ISuperToken",
          "name": "_armyToken",
          "type": "address"
        },
        {
          "internalType": "int96",
          "name": "_decay",
          "type": "int96"
        }
      ],
      "stateMutability": "nonpayable",
      "type": "constructor"
    },
    {
      "inputs": [],
      "name": "UnauthorizedHost",
      "type": "error"
    },
    {
      "inputs": [],
      "name": "STEP",
      "outputs": [
        {
          "internalType": "uint256",
          "name": "",
          "type": "uint256"
        }
      ],
      "stateMutability": "view",
      "type": "function"
    },
    {
      "inputs": [],
      "name": "_host",
      "outputs": [
        {
          "internalType": "contract ISuperfluid",
          "name": "",
          "type": "address"
        }
      ],
      "stateMutability": "view",
      "type": "function"
    },
    {
      "inputs": [
        {
          "internalType": "contract ISuperToken",
          "name": "superToken",
          "type": "address"
        },
        {
          "internalType": "address",
          "name": "agreementClass",
          "type": "address"
        },
        {
          "internalType": "bytes32",
          "name": "",
          "type": "bytes32"
        },
        {
          "internalType": "bytes",
          "name": "agreementData",
          "type": "bytes"
        },
        {
          "internalType": "bytes",
          "name": "cbdata",
          "type": "bytes"
        },
        {
          "internalType": "bytes",
          "name": "ctx",
          "type": "bytes"
        }
      ],
      "name": "afterAgreementCreated",
      "outputs": [
        {
          "internalType": "bytes",
          "name": "newCtx",
          "type": "bytes"
        }
      ],
      "stateMutability": "nonpayable",
      "type": "function"
    },
    {
      "inputs": [
        {
          "internalType": "contract ISuperToken",
          "name": "superToken",
          "type": "address"
        },
        {
          "internalType": "address",
          "name": "agreementClass",
          "type": "address"
        },
        {
          "internalType": "bytes32",
          "name": "",
          "type": "bytes32"
        },
        {
          "internalType": "bytes",
          "name": "agreementData",
          "type": "bytes"
        },
        {
          "internalType": "bytes",
          "name": "cbdata",
          "type": "bytes"
        },
        {
          "internalType": "bytes",
          "name": "ctx",
          "type": "bytes"
        }
      ],
      "name": "afterAgreementTerminated",
      "outputs": [
        {
          "internalType": "bytes",
          "name": "newCtx",
          "type": "bytes"
        }
      ],
      "stateMutability": "nonpayable",
      "type": "function"
    },
    {
      "inputs": [
        {
          "internalType": "contract ISuperToken",
          "name": "superToken",
          "type": "address"
        },
        {
          "internalType": "address",
          "name": "agreementClass",
          "type": "address"
        },
        {
          "internalType": "bytes32",
          "name": "",
          "type": "bytes32"
        },
        {
          "internalType": "bytes",
          "name": "agreementData",
          "type": "bytes"
        },
        {
          "internalType": "bytes",
          "name": "cbdata",
          "type": "bytes"
        },
        {
          "internalType": "bytes",
          "name": "ctx",
          "type": "bytes"
        }
      ],
      "name": "afterAgreementUpdated",
      "outputs": [
        {
          "internalType": "bytes",
          "name": "newCtx",
          "type": "bytes"
        }
      ],
      "stateMutability": "nonpayable",
      "type": "function"
    },
    {
      "inputs": [],
      "name": "army",
      "outputs": [
        {
          "internalType": "uint256",
          "name": "",
          "type": "uint256"
        }
      ],
      "stateMutability": "view",
      "type": "function"
    },
    {
      "inputs": [],
      "name": "armyToken",
      "outputs": [
        {
          "internalType": "contract ISuperToken",
          "name": "",
          "type": "address"
        }
      ],
      "stateMutability": "view",
      "type": "function"
    },
    {
      "inputs": [
        {
          "internalType": "contract ISuperToken",
          "name": "superToken",
          "type": "address"
        },
        {
          "internalType": "address",
          "name": "agreementClass",
          "type": "address"
        },
        {
          "internalType": "bytes32",
          "name": "",
          "type": "bytes32"
        },
        {
          "internalType": "bytes",
          "name": "agreementData",
          "type": "bytes"
        },
        {
          "internalType": "bytes",
          "name": "",
          "type": "bytes"
        }
      ],
      "name": "beforeAgreementCreated",
      "outputs": [
        {
          "internalType": "bytes",
          "name": "",
          "type": "bytes"
        }
      ],
      "stateMutability": "view",
      "type": "function"
    },
    {
      "inputs": [
        {
          "internalType": "contract ISuperToken",
          "name": "superToken",
          "type": "address"
        },
        {
          "internalType": "address",
          "name": "agreementClass",
          "type": "address"
        },
        {
          "internalType": "bytes32",
          "name": "",
          "type": "bytes32"
        },
        {
          "internalType": "bytes",
          "name": "agreementData",
          "type": "bytes"
        },
        {
          "internalType": "bytes",
          "name": "",
          "type": "bytes"
        }
      ],
      "name": "beforeAgreementTerminated",
      "outputs": [
        {
          "internalType": "bytes",
          "name": "",
          "type": "bytes"
        }
      ],
      "stateMutability": "view",
      "type": "function"
    },
    {
      "inputs": [
        {
          "internalType": "contract ISuperToken",
          "name": "superToken",
          "type": "address"
        },
        {
          "internalType": "address",
          "name": "agreementClass",
          "type": "address"
        },
        {
          "internalType": "bytes32",
          "name": "",
          "type": "bytes32"
        },
        {
          "internalType": "bytes",
          "name": "agreementData",
          "type": "bytes"
        },
        {
          "internalType": "bytes",
          "name": "",
          "type": "bytes"
        }
      ],
      "name": "beforeAgreementUpdated",
      "outputs": [
        {
          "internalType": "bytes",
          "name": "",
          "type": "bytes"
        }
      ],
      "stateMutability": "view",
      "type": "function"
    },
    {
      "inputs": [],
      "name": "cashToken",
      "outputs": [
        {
          "internalType": "contract ISuperToken",
          "name": "",
          "type": "address"
        }
      ],
      "stateMutability": "view",
      "type": "function"
    },
    {
      "inputs": [
        {
          "internalType": "uint256",
          "name": "amount",
          "type": "uint256"
        }
      ],
      "name": "claim",
      "outputs": [],
      "stateMutability": "nonpayable",
      "type": "function"
    },
    {
      "inputs": [],
      "name": "decay",
      "outputs": [
        {
          "internalType": "int96",
          "name": "",
          "type": "int96"
        }
      ],
      "stateMutability": "view",
      "type": "function"
    },
    {
      "inputs": [
        {
          "internalType": "address",
          "name": "agreementClass",
          "type": "address"
        }
      ],
      "name": "isAcceptedAgreement",
      "outputs": [
        {
          "internalType": "bool",
          "name": "",
          "type": "bool"
        }
      ],
      "stateMutability": "view",
      "type": "function"
    },
    {
      "inputs": [
        {
          "internalType": "contract ISuperToken",
          "name": "superToken",
          "type": "address"
        }
      ],
      "name": "isAcceptedSuperToken",
      "outputs": [
        {
          "internalType": "bool",
          "name": "",
          "type": "bool"
        }
      ],
      "stateMutability": "view",
      "type": "function"
    },
    {
      "inputs": [],
      "name": "king",
      "outputs": [
        {
          "internalType": "address",
          "name": "",
          "type": "address"
        }
      ],
      "stateMutability": "view",
      "type": "function"
    },
    {
      "inputs": [
        {
          "internalType": "address",
          "name": "user",
          "type": "address"
        }
      ],
      "name": "rate",
      "outputs": [
        {
          "internalType": "int96",
          "name": "",
          "type": "int96"
        }
      ],
      "stateMutability": "nonpayable",
      "type": "function"
    },
    {
      "inputs": [],
      "name": "rate",
      "outputs": [
        {
          "internalType": "int96",
          "name": "",
          "type": "int96"
        }
      ],
      "stateMutability": "nonpayable",
      "type": "function"
    },
    {
      "inputs": [],
      "name": "taxRate",
      "outputs": [
        {
          "internalType": "int96",
          "name": "",
          "type": "int96"
        }
      ],
      "stateMutability": "nonpayable",
      "type": "function"
    },
    {
      "inputs": [
        {
          "internalType": "address",
          "name": "",
          "type": "address"
        },
        {
          "internalType": "address",
          "name": "from",
          "type": "address"
        },
        {
          "internalType": "address",
          "name": "",
          "type": "address"
        },
        {
          "internalType": "uint256",
          "name": "amount",
          "type": "uint256"
        },
        {
          "internalType": "bytes",
          "name": "",
          "type": "bytes"
        },
        {
          "internalType": "bytes",
          "name": "",
          "type": "bytes"
        }
      ],
      "name": "tokensReceived",
      "outputs": [],
      "stateMutability": "nonpayable",
      "type": "function"
    },
    {
      "inputs": [],
      "name": "treasureRate",
      "outputs": [
        {
          "internalType": "int96",
          "name": "",
          "type": "int96"
        }
      ],
      "stateMutability": "view",
      "type": "function"
    }
  ],
  "bytecode": "0x6101206040523480156200001257600080fd5b506040516200438438038062004384833981810160405281019062000038919062000443565b8273ffffffffffffffffffffffffffffffffffffffff166320bc44256040518163ffffffff1660e01b8152600401602060405180830381865afa15801562000084573d6000803e3d6000fd5b505050506040513d601f19601f82011682018060405250810190620000aa9190620004d0565b6001806001836000806101000a81548173ffffffffffffffffffffffffffffffffffffffff021916908373ffffffffffffffffffffffffffffffffffffffff160217905550600060019050836200011157640200000000816200010e91906200053b565b90505b826200012d57640800000000816200012a91906200053b565b90505b816200014957642000000000816200014691906200053b565b90505b8473ffffffffffffffffffffffffffffffffffffffff1663ad3915c8826040518263ffffffff1660e01b8152600401620001849190620005a9565b600060405180830381600087803b1580156200019f57600080fd5b505af1158015620001b4573d6000803e3d6000fd5b5050505050505050508173ffffffffffffffffffffffffffffffffffffffff1660a08173ffffffffffffffffffffffffffffffffffffffff16815250508273ffffffffffffffffffffffffffffffffffffffff1660808173ffffffffffffffffffffffffffffffffffffffff1681525050670de0b6b3a7640000600b0b60e081600b0b81525050600060038190555080600260006101000a8154816bffffffffffffffffffffffff0219169083600b0b6bffffffffffffffffffffffff1602179055504260c0818152505033600460006101000a81548173ffffffffffffffffffffffffffffffffffffffff021916908373ffffffffffffffffffffffffffffffffffffffff1602179055506103e8600b0b61010081600b0b8152505060007fb281fc8c12954d22544db45de3159a39272895b169a852b314f9cc762e44c53b9050731820a4b7618bde71dce8cdc73aab6c95905fad2473ffffffffffffffffffffffffffffffffffffffff166329965a1d3083306040518463ffffffff1660e01b81526004016200034993929190620005f2565b600060405180830381600087803b1580156200036457600080fd5b505af115801562000379573d6000803e3d6000fd5b50505050505050506200062f565b600080fd5b600073ffffffffffffffffffffffffffffffffffffffff82169050919050565b6000620003b9826200038c565b9050919050565b6000620003cd82620003ac565b9050919050565b620003df81620003c0565b8114620003eb57600080fd5b50565b600081519050620003ff81620003d4565b92915050565b600081600b0b9050919050565b6200041d8162000405565b81146200042957600080fd5b50565b6000815190506200043d8162000412565b92915050565b6000806000606084860312156200045f576200045e62000387565b5b60006200046f86828701620003ee565b93505060206200048286828701620003ee565b925050604062000495868287016200042c565b9150509250925092565b620004aa81620003ac565b8114620004b657600080fd5b50565b600081519050620004ca816200049f565b92915050565b600060208284031215620004e957620004e862000387565b5b6000620004f984828501620004b9565b91505092915050565b6000819050919050565b7f4e487b7100000000000000000000000000000000000000000000000000000000600052601160045260246000fd5b6000620005488262000502565b9150620005558362000502565b9250827fffffffffffffffffffffffffffffffffffffffffffffffffffffffffffffffff038211156200058d576200058c6200050c565b5b828201905092915050565b620005a38162000502565b82525050565b6000602082019050620005c0600083018462000598565b92915050565b620005d181620003ac565b82525050565b6000819050919050565b620005ec81620005d7565b82525050565b6000606082019050620006096000830186620005c6565b620006186020830185620005e1565b620006276040830184620005c6565b949350505050565b60805160a05160c05160e05161010051613c7d62000707600039600081816111f201526122f10152600061163b01526000611605015260008181610451015281816106370152818161068e015281816109c30152818161176301526119580152600081816105ec01528181610e370152818161103c01528181611296015281816113050152818161135101528181611398015281816113d5015281816117eb01528181611862015281816118c8015281816119ca01528181611a4701528181611ac501528181612253015261229d0152613c7d6000f3fe608060405234801561001057600080fd5b50600436106101365760003560e01c806354fac919116100b8578063884d1f401161007c578063884d1f4014610377578063a7224687146103a7578063cc181ca8146103c5578063d86ed3e5146103e3578063e40f7b8214610413578063f10e38af1461043157610136565b806354fac919146102bd5780635f9e7d77146102db57806372ca8a3e1461030b578063771a3a1d1461033b578063852e5a0a1461035957610136565b80632c4e722e116100ff5780632c4e722e1461020557806330d9c91514610223578063379607f51461025357806353c11f991461026f57806353d0f2551461029f57610136565b806223de291461013b57806301c09f57146101575780630ba9d8ca146101875780631aa67abb146101b7578063230dbd29146101d5575b600080fd5b61015560048036038101906101509190612a5b565b61044f565b005b610171600480360381019061016c9190612b2a565b6104f1565b60405161017e9190612b72565b60405180910390f35b6101a1600480360381019061019c9190612b2a565b6105e3565b6040516101ae9190612ba9565b60405180910390f35b6101bf61068c565b6040516101cc9190612c23565b60405180910390f35b6101ef60048036038101906101ea9190612cb2565b6106b0565b6040516101fc9190612e3a565b60405180910390f35b61020d61081c565b60405161021a9190612ba9565b60405180910390f35b61023d60048036038101906102389190612e5c565b61082b565b60405161024a9190612e3a565b60405180910390f35b61026d60048036038101906102689190612f18565b6109c1565b005b61028960048036038101906102849190612cb2565b610a6f565b6040516102969190612e3a565b60405180910390f35b6102a7610bf9565b6040516102b49190612f54565b60405180910390f35b6102c5610bff565b6040516102d29190612ba9565b60405180910390f35b6102f560048036038101906102f09190612e5c565b610c12565b6040516103029190612e3a565b60405180910390f35b61032560048036038101906103209190612f6f565b610db6565b6040516103329190612b72565b60405180910390f35b610343610e0c565b6040516103509190612ba9565b60405180910390f35b610361610e80565b60405161036e9190612fbd565b60405180910390f35b610391600480360381019061038c9190612e5c565b610ea4565b60405161039e9190612e3a565b60405180910390f35b6103af61103a565b6040516103bc9190612c23565b60405180910390f35b6103cd61105e565b6040516103da9190612fe7565b60405180910390f35b6103fd60048036038101906103f89190612cb2565b611084565b60405161040a9190612e3a565b60405180910390f35b61041b6111f0565b6040516104289190612ba9565b60405180910390f35b610439611214565b6040516104469190612f54565b60405180910390f35b7f000000000000000000000000000000000000000000000000000000000000000073ffffffffffffffffffffffffffffffffffffffff163373ffffffffffffffffffffffffffffffffffffffff16146104dd576040517f08c379a00000000000000000000000000000000000000000000000000000000081526004016104d49061305f565b60405180910390fd5b6104e7878661121a565b5050505050505050565b60008060009054906101000a900473ffffffffffffffffffffffffffffffffffffffff1673ffffffffffffffffffffffffffffffffffffffff1663b6d200de7fa9214cc96615e0085d3bb077758db69497dc2dce3b2b1e97bc93c3d18d83efd36040518263ffffffff1660e01b815260040161056d919061308e565b602060405180830381865afa15801561058a573d6000803e3d6000fd5b505050506040513d601f19601f820116820180604052508101906105ae91906130e7565b73ffffffffffffffffffffffffffffffffffffffff168273ffffffffffffffffffffffffffffffffffffffff16149050919050565b600061063082307f000000000000000000000000000000000000000000000000000000000000000073ffffffffffffffffffffffffffffffffffffffff166115149092919063ffffffff16565b61067b30847f000000000000000000000000000000000000000000000000000000000000000073ffffffffffffffffffffffffffffffffffffffff166115149092919063ffffffff16565b6106859190613172565b9050919050565b7f000000000000000000000000000000000000000000000000000000000000000081565b606060008054906101000a900473ffffffffffffffffffffffffffffffffffffffff1673ffffffffffffffffffffffffffffffffffffffff163373ffffffffffffffffffffffffffffffffffffffff1614610737576040517f2f2d36a700000000000000000000000000000000000000000000000000000000815260040160405180910390fd5b6107408a610db6565b6107905782828080601f016020809104026020016040519081016040528093929190818152602001838380828437600081840152601f19601f82011690508083019250505050505050905061080f565b610799896104f1565b6107e95782828080601f016020809104026020016040519081016040528093929190818152602001838380828437600081840152601f19601f82011690508083019250505050505050905061080f565b600087878101906107fa919061321a565b50905061080b8b82888888886115b4565b9150505b9998505050505050505050565b60006108266115f1565b905090565b606060008054906101000a900473ffffffffffffffffffffffffffffffffffffffff1673ffffffffffffffffffffffffffffffffffffffff163373ffffffffffffffffffffffffffffffffffffffff16146108b2576040517f2f2d36a700000000000000000000000000000000000000000000000000000000815260040160405180910390fd5b6108bb88610db6565b6108fc576040518060400160405280600281526020017f307800000000000000000000000000000000000000000000000000000000000081525090506109b6565b610905876104f1565b610946576040518060400160405280600281526020017f307800000000000000000000000000000000000000000000000000000000000081525090506109b6565b60008585810190610957919061321a565b50905060008061098883308d73ffffffffffffffffffffffffffffffffffffffff166116699092919063ffffffff16565b50509150915081816040516020016109a192919061325a565b60405160208183030381529060405293505050505b979650505050505050565b7f000000000000000000000000000000000000000000000000000000000000000073ffffffffffffffffffffffffffffffffffffffff166323b872dd3330846040518463ffffffff1660e01b8152600401610a1e93929190613283565b6020604051808303816000875af1158015610a3d573d6000803e3d6000fd5b505050506040513d601f19601f82011682018060405250810190610a6191906132e6565b50610a6c338261121a565b50565b606060008054906101000a900473ffffffffffffffffffffffffffffffffffffffff1673ffffffffffffffffffffffffffffffffffffffff163373ffffffffffffffffffffffffffffffffffffffff1614610b105782828080601f016020809104026020016040519081016040528093929190818152602001838380828437600081840152601f19601f820116905080830192505050505050509050610bec565b610b198a610db6565b610b695782828080601f016020809104026020016040519081016040528093929190818152602001838380828437600081840152601f19601f820116905080830192505050505050509050610bec565b610b72896104f1565b610bc25782828080601f016020809104026020016040519081016040528093929190818152602001838380828437600081840152601f19601f820116905080830192505050505050509050610bec565b6000808888810190610bd4919061321a565b91509150610be78c83838a8a8a8a611715565b925050505b9998505050505050505050565b60035481565b600260009054906101000a9004600b0b81565b606060008054906101000a900473ffffffffffffffffffffffffffffffffffffffff1673ffffffffffffffffffffffffffffffffffffffff163373ffffffffffffffffffffffffffffffffffffffff1614610ca4576040518060400160405280600281526020017f30780000000000000000000000000000000000000000000000000000000000008152509050610dab565b610cad88610db6565b610cee576040518060400160405280600281526020017f30780000000000000000000000000000000000000000000000000000000000008152509050610dab565b610cf7876104f1565b610d38576040518060400160405280600281526020017f30780000000000000000000000000000000000000000000000000000000000008152509050610dab565b6000808686810190610d4a919061321a565b91509150600080610d7c84848e73ffffffffffffffffffffffffffffffffffffffff166116699092919063ffffffff16565b5050915091508181604051602001610d9592919061325a565b6040516020818303038152906040529450505050505b979650505050505050565b6000600160008373ffffffffffffffffffffffffffffffffffffffff1673ffffffffffffffffffffffffffffffffffffffff16815260200190815260200160002060009054906101000a900460ff169050919050565b6000610e7b30600460009054906101000a900473ffffffffffffffffffffffffffffffffffffffff167f000000000000000000000000000000000000000000000000000000000000000073ffffffffffffffffffffffffffffffffffffffff166115149092919063ffffffff16565b905090565b60008054906101000a900473ffffffffffffffffffffffffffffffffffffffff1681565b606060008054906101000a900473ffffffffffffffffffffffffffffffffffffffff1673ffffffffffffffffffffffffffffffffffffffff163373ffffffffffffffffffffffffffffffffffffffff1614610f2b576040517f2f2d36a700000000000000000000000000000000000000000000000000000000815260040160405180910390fd5b610f3488610db6565b610f75576040518060400160405280600281526020017f3078000000000000000000000000000000000000000000000000000000000000815250905061102f565b610f7e876104f1565b610fbf576040518060400160405280600281526020017f3078000000000000000000000000000000000000000000000000000000000000815250905061102f565b60008585810190610fd0919061321a565b50905060008061100183308d73ffffffffffffffffffffffffffffffffffffffff166116699092919063ffffffff16565b505091509150818160405160200161101a92919061325a565b60405160208183030381529060405293505050505b979650505050505050565b7f000000000000000000000000000000000000000000000000000000000000000081565b600460009054906101000a900473ffffffffffffffffffffffffffffffffffffffff1681565b606060008054906101000a900473ffffffffffffffffffffffffffffffffffffffff1673ffffffffffffffffffffffffffffffffffffffff163373ffffffffffffffffffffffffffffffffffffffff161461110b576040517f2f2d36a700000000000000000000000000000000000000000000000000000000815260040160405180910390fd5b6111148a610db6565b6111645782828080601f016020809104026020016040519081016040528093929190818152602001838380828437600081840152601f19601f8201169050808301925050505050505090506111e3565b61116d896104f1565b6111bd5782828080601f016020809104026020016040519081016040528093929190818152602001838380828437600081840152601f19601f8201169050808301925050505050505090506111e3565b600087878101906111ce919061321a565b5090506111df8b82888888886118b8565b9150505b9998505050505050505050565b7f000000000000000000000000000000000000000000000000000000000000000081565b60055481565b60035460055461122a9190613313565b811161126b576040517f08c379a0000000000000000000000000000000000000000000000000000000008152600401611262906133b5565b60405180910390fd5b60006112da30600460009054906101000a900473ffffffffffffffffffffffffffffffffffffffff167f000000000000000000000000000000000000000000000000000000000000000073ffffffffffffffffffffffffffffffffffffffff166115149092919063ffffffff16565b905061134930600460009054906101000a900473ffffffffffffffffffffffffffffffffffffffff167f000000000000000000000000000000000000000000000000000000000000000073ffffffffffffffffffffffffffffffffffffffff16611b199092919063ffffffff16565b5061139583827f000000000000000000000000000000000000000000000000000000000000000073ffffffffffffffffffffffffffffffffffffffff16611ccc9092919063ffffffff16565b507f000000000000000000000000000000000000000000000000000000000000000073ffffffffffffffffffffffffffffffffffffffff1663a9059cbb847f000000000000000000000000000000000000000000000000000000000000000073ffffffffffffffffffffffffffffffffffffffff166370a08231306040518263ffffffff1660e01b815260040161142c9190612fe7565b602060405180830381865afa158015611449573d6000803e3d6000fd5b505050506040513d601f19601f8201168201806040525081019061146d91906133ea565b6040518363ffffffff1660e01b815260040161148a929190613417565b6020604051808303816000875af11580156114a9573d6000803e3d6000fd5b505050506040513d601f19601f820116820180604052508101906114cd91906132e6565b5082600460006101000a81548173ffffffffffffffffffffffffffffffffffffffff021916908373ffffffffffffffffffffffffffffffffffffffff160217905550505050565b60008061152085611e7f565b9150508073ffffffffffffffffffffffffffffffffffffffff1663e6a1e8888686866040518463ffffffff1660e01b815260040161156093929190613440565b608060405180830381865afa15801561157d573d6000803e3d6000fd5b505050506040513d601f19601f820116820180604052508101906115a191906134a3565b9091925090505080925050509392505050565b60606040517f08c379a00000000000000000000000000000000000000000000000000000000081526004016115e890613556565b60405180910390fd5b6000600260009054906101000a9004600b0b7f00000000000000000000000000000000000000000000000000000000000000004261162f9190613576565b61163991906135aa565b7f00000000000000000000000000000000000000000000000000000000000000006116649190613699565b905090565b600080600080600061167a88611e7f565b9150508073ffffffffffffffffffffffffffffffffffffffff1663e6a1e8888989896040518463ffffffff1660e01b81526004016116ba93929190613440565b608060405180830381865afa1580156116d7573d6000803e3d6000fd5b505050506040513d601f19601f820116820180604052508101906116fb91906134a3565b809550819650829750839850505050505093509350935093565b60606117a8308885858080601f016020809104026020016040519081016040528093929190818152602001838380828437600081840152601f19601f820116905080830192505050505050507f000000000000000000000000000000000000000000000000000000000000000073ffffffffffffffffffffffffffffffffffffffff166120c0909392919063ffffffff16565b905060006117b4612227565b9050600081600b0b1461183857611830600460009054906101000a900473ffffffffffffffffffffffffffffffffffffffff1682847f000000000000000000000000000000000000000000000000000000000000000073ffffffffffffffffffffffffffffffffffffffff16612336909392919063ffffffff16565b9150816118ab565b6118a730600460009054906101000a900473ffffffffffffffffffffffffffffffffffffffff16847f000000000000000000000000000000000000000000000000000000000000000073ffffffffffffffffffffffffffffffffffffffff166120c0909392919063ffffffff16565b9150815b5050979650505050505050565b606061199d8661191161190c89307f000000000000000000000000000000000000000000000000000000000000000073ffffffffffffffffffffffffffffffffffffffff166115149092919063ffffffff16565b61249d565b85858080601f016020809104026020016040519081016040528093929190818152602001838380828437600081840152601f19601f820116905080830192505050505050507f000000000000000000000000000000000000000000000000000000000000000073ffffffffffffffffffffffffffffffffffffffff166124cc909392919063ffffffff16565b90506000611a0e30600460009054906101000a900473ffffffffffffffffffffffffffffffffffffffff167f000000000000000000000000000000000000000000000000000000000000000073ffffffffffffffffffffffffffffffffffffffff166115149092919063ffffffff16565b600b0b14611a9457611a8c600460009054906101000a900473ffffffffffffffffffffffffffffffffffffffff16611a44612227565b837f000000000000000000000000000000000000000000000000000000000000000073ffffffffffffffffffffffffffffffffffffffff16612336909392919063ffffffff16565b905080611b0e565b611b0a600460009054906101000a900473ffffffffffffffffffffffffffffffffffffffff16611ac2612227565b837f000000000000000000000000000000000000000000000000000000000000000073ffffffffffffffffffffffffffffffffffffffff166124cc909392919063ffffffff16565b9050805b509695505050505050565b6000806000611b2786612633565b915091508173ffffffffffffffffffffffffffffffffffffffff166339255d5b828373ffffffffffffffffffffffffffffffffffffffff1663b4b333c68a8a8a600067ffffffffffffffff811115611b8257611b81613719565b5b6040519080825280601f01601f191660200182016040528015611bb45781602001600182028036833780820191505090505b50604051602401611bc89493929190613748565b604051602081830303815290604052915060e01b6020820180517bffffffffffffffffffffffffffffffffffffffffffffffffffffffff8381831617835250505050600067ffffffffffffffff811115611c2557611c24613719565b5b6040519080825280601f01601f191660200182016040528015611c575781602001600182028036833780820191505090505b506040518463ffffffff1660e01b8152600401611c76939291906137b5565b6000604051808303816000875af1158015611c95573d6000803e3d6000fd5b505050506040513d6000823e3d601f19601f82011682018060405250810190611cbe91906138ec565b506001925050509392505050565b6000806000611cda86612633565b915091508173ffffffffffffffffffffffffffffffffffffffff166339255d5b828373ffffffffffffffffffffffffffffffffffffffff166362fc305e8a8a8a600067ffffffffffffffff811115611d3557611d34613719565b5b6040519080825280601f01601f191660200182016040528015611d675781602001600182028036833780820191505090505b50604051602401611d7b9493929190613935565b604051602081830303815290604052915060e01b6020820180517bffffffffffffffffffffffffffffffffffffffffffffffffffffffff8381831617835250505050600067ffffffffffffffff811115611dd857611dd7613719565b5b6040519080825280601f01601f191660200182016040528015611e0a5781602001600182028036833780820191505090505b506040518463ffffffff1660e01b8152600401611e29939291906137b5565b6000604051808303816000875af1158015611e48573d6000803e3d6000fd5b505050506040513d6000823e3d601f19601f82011682018060405250810190611e7191906138ec565b506001925050509392505050565b6000807f65599bf746e17a00ea62e3610586992d88101b78eec3cf380706621fb97ea8375491507fb969d79d88acd02d04ed7ee7d43b949e7daf093d363abcfbbc43dfdfd1ce969a549050600073ffffffffffffffffffffffffffffffffffffffff168173ffffffffffffffffffffffffffffffffffffffff160361204157600073ffffffffffffffffffffffffffffffffffffffff168273ffffffffffffffffffffffffffffffffffffffff1603611fa4578273ffffffffffffffffffffffffffffffffffffffff166320bc44256040518163ffffffff1660e01b8152600401602060405180830381865afa158015611f7d573d6000803e3d6000fd5b505050506040513d601f19601f82011682018060405250810190611fa19190613996565b91505b8173ffffffffffffffffffffffffffffffffffffffff1663b6d200de7fa9214cc96615e0085d3bb077758db69497dc2dce3b2b1e97bc93c3d18d83efd36040518263ffffffff1660e01b8152600401611ffd9190613a0b565b602060405180830381865afa15801561201a573d6000803e3d6000fd5b505050506040513d601f19601f8201168201806040525081019061203e91906130e7565b90505b600073ffffffffffffffffffffffffffffffffffffffff168273ffffffffffffffffffffffffffffffffffffffff160361207e5761207d613a26565b5b600073ffffffffffffffffffffffffffffffffffffffff168173ffffffffffffffffffffffffffffffffffffffff16036120bb576120ba613a26565b5b915091565b60606000806120ce87612633565b915091508173ffffffffffffffffffffffffffffffffffffffff16634329d293828373ffffffffffffffffffffffffffffffffffffffff1663b4b333c68b8b8b600067ffffffffffffffff81111561212957612128613719565b5b6040519080825280601f01601f19166020018201604052801561215b5781602001600182028036833780820191505090505b5060405160240161216f9493929190613748565b604051602081830303815290604052915060e01b6020820180517bffffffffffffffffffffffffffffffffffffffffffffffffffffffff8381831617835250505050876040518463ffffffff1660e01b81526004016121d093929190613aa1565b6000604051808303816000875af11580156121ef573d6000803e3d6000fd5b505050506040513d6000823e3d601f19601f820116820180604052508101906122189190613af9565b50809350505050949350505050565b60008061229730600460009054906101000a900473ffffffffffffffffffffffffffffffffffffffff167f000000000000000000000000000000000000000000000000000000000000000073ffffffffffffffffffffffffffffffffffffffff166115149092919063ffffffff16565b6122e0307f000000000000000000000000000000000000000000000000000000000000000073ffffffffffffffffffffffffffffffffffffffff166128ba90919063ffffffff16565b6122ea9190613b71565b90506127107f00000000000000000000000000000000000000000000000000000000000000008261231b91906135aa565b6123259190613172565b816123309190613699565b91505090565b606060008061234487612633565b915091508173ffffffffffffffffffffffffffffffffffffffff16634329d293828373ffffffffffffffffffffffffffffffffffffffff166350209a628b8b8b600067ffffffffffffffff81111561239f5761239e613719565b5b6040519080825280601f01601f1916602001820160405280156123d15781602001600182028036833780820191505090505b506040516024016123e59493929190613935565b604051602081830303815290604052915060e01b6020820180517bffffffffffffffffffffffffffffffffffffffffffffffffffffffff8381831617835250505050876040518463ffffffff1660e01b815260040161244693929190613aa1565b6000604051808303816000875af1158015612465573d6000803e3d6000fd5b505050506040513d6000823e3d601f19601f8201168201806040525081019061248e9190613af9565b50809350505050949350505050565b6000670de0b6b3a76400006124b06115f1565b836124bb91906135aa565b6124c59190613172565b9050919050565b60606000806124da87612633565b915091508173ffffffffffffffffffffffffffffffffffffffff16634329d293828373ffffffffffffffffffffffffffffffffffffffff166362fc305e8b8b8b600067ffffffffffffffff81111561253557612534613719565b5b6040519080825280601f01601f1916602001820160405280156125675781602001600182028036833780820191505090505b5060405160240161257b9493929190613935565b604051602081830303815290604052915060e01b6020820180517bffffffffffffffffffffffffffffffffffffffffffffffffffffffff8381831617835250505050876040518463ffffffff1660e01b81526004016125dc93929190613aa1565b6000604051808303816000875af11580156125fb573d6000803e3d6000fd5b505050506040513d6000823e3d601f19601f820116820180604052508101906126249190613af9565b50809350505050949350505050565b6000807f65599bf746e17a00ea62e3610586992d88101b78eec3cf380706621fb97ea8375491507fb969d79d88acd02d04ed7ee7d43b949e7daf093d363abcfbbc43dfdfd1ce969a549050600073ffffffffffffffffffffffffffffffffffffffff168173ffffffffffffffffffffffffffffffffffffffff160361283b57600073ffffffffffffffffffffffffffffffffffffffff168273ffffffffffffffffffffffffffffffffffffffff1603612758578273ffffffffffffffffffffffffffffffffffffffff166320bc44256040518163ffffffff1660e01b8152600401602060405180830381865afa158015612731573d6000803e3d6000fd5b505050506040513d601f19601f820116820180604052508101906127559190613996565b91505b8173ffffffffffffffffffffffffffffffffffffffff1663b6d200de7fa9214cc96615e0085d3bb077758db69497dc2dce3b2b1e97bc93c3d18d83efd36040518263ffffffff1660e01b81526004016127b19190613a0b565b602060405180830381865afa1580156127ce573d6000803e3d6000fd5b505050506040513d601f19601f820116820180604052508101906127f291906130e7565b9050817f65599bf746e17a00ea62e3610586992d88101b78eec3cf380706621fb97ea83755807fb969d79d88acd02d04ed7ee7d43b949e7daf093d363abcfbbc43dfdfd1ce969a555b600073ffffffffffffffffffffffffffffffffffffffff168273ffffffffffffffffffffffffffffffffffffffff160361287857612877613a26565b5b600073ffffffffffffffffffffffffffffffffffffffff168173ffffffffffffffffffffffffffffffffffffffff16036128b5576128b4613a26565b5b915091565b6000806128c684611e7f565b9150508073ffffffffffffffffffffffffffffffffffffffff1663e8e7e2d185856040518363ffffffff1660e01b8152600401612904929190613bf1565b602060405180830381865afa158015612921573d6000803e3d6000fd5b505050506040513d601f19601f820116820180604052508101906129459190613c1a565b91505092915050565b6000604051905090565b600080fd5b600080fd5b600073ffffffffffffffffffffffffffffffffffffffff82169050919050565b600061298d82612962565b9050919050565b61299d81612982565b81146129a857600080fd5b50565b6000813590506129ba81612994565b92915050565b6000819050919050565b6129d3816129c0565b81146129de57600080fd5b50565b6000813590506129f0816129ca565b92915050565b600080fd5b600080fd5b600080fd5b60008083601f840112612a1b57612a1a6129f6565b5b8235905067ffffffffffffffff811115612a3857612a376129fb565b5b602083019150836001820283011115612a5457612a53612a00565b5b9250929050565b60008060008060008060008060c0898b031215612a7b57612a7a612958565b5b6000612a898b828c016129ab565b9850506020612a9a8b828c016129ab565b9750506040612aab8b828c016129ab565b9650506060612abc8b828c016129e1565b955050608089013567ffffffffffffffff811115612add57612adc61295d565b5b612ae98b828c01612a05565b945094505060a089013567ffffffffffffffff811115612b0c57612b0b61295d565b5b612b188b828c01612a05565b92509250509295985092959890939650565b600060208284031215612b4057612b3f612958565b5b6000612b4e848285016129ab565b91505092915050565b60008115159050919050565b612b6c81612b57565b82525050565b6000602082019050612b876000830184612b63565b92915050565b600081600b0b9050919050565b612ba381612b8d565b82525050565b6000602082019050612bbe6000830184612b9a565b92915050565b6000819050919050565b6000612be9612be4612bdf84612962565b612bc4565b612962565b9050919050565b6000612bfb82612bce565b9050919050565b6000612c0d82612bf0565b9050919050565b612c1d81612c02565b82525050565b6000602082019050612c386000830184612c14565b92915050565b6000612c4982612982565b9050919050565b612c5981612c3e565b8114612c6457600080fd5b50565b600081359050612c7681612c50565b92915050565b6000819050919050565b612c8f81612c7c565b8114612c9a57600080fd5b50565b600081359050612cac81612c86565b92915050565b600080600080600080600080600060c08a8c031215612cd457612cd3612958565b5b6000612ce28c828d01612c67565b9950506020612cf38c828d016129ab565b9850506040612d048c828d01612c9d565b97505060608a013567ffffffffffffffff811115612d2557612d2461295d565b5b612d318c828d01612a05565b965096505060808a013567ffffffffffffffff811115612d5457612d5361295d565b5b612d608c828d01612a05565b945094505060a08a013567ffffffffffffffff811115612d8357612d8261295d565b5b612d8f8c828d01612a05565b92509250509295985092959850929598565b600081519050919050565b600082825260208201905092915050565b60005b83811015612ddb578082015181840152602081019050612dc0565b83811115612dea576000848401525b50505050565b6000601f19601f8301169050919050565b6000612e0c82612da1565b612e168185612dac565b9350612e26818560208601612dbd565b612e2f81612df0565b840191505092915050565b60006020820190508181036000830152612e548184612e01565b905092915050565b600080600080600080600060a0888a031215612e7b57612e7a612958565b5b6000612e898a828b01612c67565b9750506020612e9a8a828b016129ab565b9650506040612eab8a828b01612c9d565b955050606088013567ffffffffffffffff811115612ecc57612ecb61295d565b5b612ed88a828b01612a05565b9450945050608088013567ffffffffffffffff811115612efb57612efa61295d565b5b612f078a828b01612a05565b925092505092959891949750929550565b600060208284031215612f2e57612f2d612958565b5b6000612f3c848285016129e1565b91505092915050565b612f4e816129c0565b82525050565b6000602082019050612f696000830184612f45565b92915050565b600060208284031215612f8557612f84612958565b5b6000612f9384828501612c67565b91505092915050565b6000612fa782612bf0565b9050919050565b612fb781612f9c565b82525050565b6000602082019050612fd26000830184612fae565b92915050565b612fe181612982565b82525050565b6000602082019050612ffc6000830184612fd8565b92915050565b600082825260208201905092915050565b7f506c656173652073656e642074686520726967687420746f6b656e2100000000600082015250565b6000613049601c83613002565b915061305482613013565b602082019050919050565b600060208201905081810360008301526130788161303c565b9050919050565b61308881612c7c565b82525050565b60006020820190506130a3600083018461307f565b92915050565b60006130b482612982565b9050919050565b6130c4816130a9565b81146130cf57600080fd5b50565b6000815190506130e1816130bb565b92915050565b6000602082840312156130fd576130fc612958565b5b600061310b848285016130d2565b91505092915050565b7f4e487b7100000000000000000000000000000000000000000000000000000000600052601260045260246000fd5b7f4e487b7100000000000000000000000000000000000000000000000000000000600052601160045260246000fd5b600061317d82612b8d565b915061318883612b8d565b92508261319857613197613114565b5b600160000383147fffffffffffffffffffffffffffffffffffffffff800000000000000000000000831416156131d1576131d0613143565b5b828205905092915050565b60006131e782612962565b9050919050565b6131f7816131dc565b811461320257600080fd5b50565b600081359050613214816131ee565b92915050565b6000806040838503121561323157613230612958565b5b600061323f85828601613205565b925050602061325085828601613205565b9150509250929050565b600060408201905061326f6000830185612f45565b61327c6020830184612b9a565b9392505050565b60006060820190506132986000830186612fd8565b6132a56020830185612fd8565b6132b26040830184612f45565b949350505050565b6132c381612b57565b81146132ce57600080fd5b50565b6000815190506132e0816132ba565b92915050565b6000602082840312156132fc576132fb612958565b5b600061330a848285016132d1565b91505092915050565b600061331e826129c0565b9150613329836129c0565b9250827fffffffffffffffffffffffffffffffffffffffffffffffffffffffffffffffff0382111561335e5761335d613143565b5b828201905092915050565b7f73656e64206d6f7265206d6f6e65790000000000000000000000000000000000600082015250565b600061339f600f83613002565b91506133aa82613369565b602082019050919050565b600060208201905081810360008301526133ce81613392565b9050919050565b6000815190506133e4816129ca565b92915050565b600060208284031215613400576133ff612958565b5b600061340e848285016133d5565b91505092915050565b600060408201905061342c6000830185612fd8565b6134396020830184612f45565b9392505050565b60006060820190506134556000830186612c14565b6134626020830185612fd8565b61346f6040830184612fd8565b949350505050565b61348081612b8d565b811461348b57600080fd5b50565b60008151905061349d81613477565b92915050565b600080600080608085870312156134bd576134bc612958565b5b60006134cb878288016133d5565b94505060206134dc8782880161348e565b93505060406134ed878288016133d5565b92505060606134fe878288016133d5565b91505092959194509250565b7f63616e27742075706461746520736f7272792062796500000000000000000000600082015250565b6000613540601683613002565b915061354b8261350a565b602082019050919050565b6000602082019050818103600083015261356f81613533565b9050919050565b6000613581826129c0565b915061358c836129c0565b92508282101561359f5761359e613143565b5b828203905092915050565b60006135b582612b8d565b91506135c083612b8d565b9250826b7fffffffffffffffffffffff04821160008413600084131616156135eb576135ea613143565b5b817fffffffffffffffffffffffffffffffffffffffff800000000000000000000000058312600084126000841316161561362857613627613143565b5b827fffffffffffffffffffffffffffffffffffffffff800000000000000000000000058212600084136000841216161561366557613664613143565b5b826b7fffffffffffffffffffffff058212600084126000841216161561368e5761368d613143565b5b828202905092915050565b60006136a482612b8d565b91506136af83612b8d565b9250827fffffffffffffffffffffffffffffffffffffffff800000000000000000000000018212600084121516156136ea576136e9613143565b5b826b7fffffffffffffffffffffff01821360008412161561370e5761370d613143565b5b828203905092915050565b7f4e487b7100000000000000000000000000000000000000000000000000000000600052604160045260246000fd5b600060808201905061375d6000830187612c14565b61376a6020830186612fd8565b6137776040830185612fd8565b81810360608301526137898184612e01565b905095945050505050565b600061379f82612bf0565b9050919050565b6137af81613794565b82525050565b60006060820190506137ca60008301866137a6565b81810360208301526137dc8185612e01565b905081810360408301526137f08184612e01565b9050949350505050565b600080fd5b61380882612df0565b810181811067ffffffffffffffff8211171561382757613826613719565b5b80604052505050565b600061383a61294e565b905061384682826137ff565b919050565b600067ffffffffffffffff82111561386657613865613719565b5b61386f82612df0565b9050602081019050919050565b600061388f61388a8461384b565b613830565b9050828152602081018484840111156138ab576138aa6137fa565b5b6138b6848285612dbd565b509392505050565b600082601f8301126138d3576138d26129f6565b5b81516138e384826020860161387c565b91505092915050565b60006020828403121561390257613901612958565b5b600082015167ffffffffffffffff8111156139205761391f61295d565b5b61392c848285016138be565b91505092915050565b600060808201905061394a6000830187612c14565b6139576020830186612fd8565b6139646040830185612b9a565b81810360608301526139768184612e01565b905095945050505050565b60008151905061399081612994565b92915050565b6000602082840312156139ac576139ab612958565b5b60006139ba84828501613981565b91505092915050565b6000819050919050565b60008160001b9050919050565b60006139f56139f06139eb846139c3565b6139cd565b612c7c565b9050919050565b613a05816139da565b82525050565b6000602082019050613a2060008301846139fc565b92915050565b7f4e487b7100000000000000000000000000000000000000000000000000000000600052600160045260246000fd5b7f3078000000000000000000000000000000000000000000000000000000000000600082015250565b6000613a8b600283612dac565b9150613a9682613a55565b602082019050919050565b6000608082019050613ab660008301866137a6565b8181036020830152613ac88185612e01565b90508181036040830152613adb81613a7e565b90508181036060830152613aef8184612e01565b9050949350505050565b60008060408385031215613b1057613b0f612958565b5b600083015167ffffffffffffffff811115613b2e57613b2d61295d565b5b613b3a858286016138be565b925050602083015167ffffffffffffffff811115613b5b57613b5a61295d565b5b613b67858286016138be565b9150509250929050565b6000613b7c82612b8d565b9150613b8783612b8d565b9250816b7fffffffffffffffffffffff03831360008312151615613bae57613bad613143565b5b817fffffffffffffffffffffffffffffffffffffffff800000000000000000000000038312600083121615613be657613be5613143565b5b828201905092915050565b6000604082019050613c066000830185612c14565b613c136020830184612fd8565b9392505050565b600060208284031215613c3057613c2f612958565b5b6000613c3e8482850161348e565b9150509291505056fea2646970667358221220f88127d5825cc5b7b1f8d5d78d7048b13fcf7b40b132c6c83d1da3ab6b423a6664736f6c634300080e0033",
  "linkReferences": {},
  "deployedLinkReferences": {}
}