{
  "_format": "hh-sol-artifact-1",
  "contractName": "KingOfHill",
  "sourceName": "contracts/KingOfHill.sol",
  "abi": [
    {
      "inputs": [
        {
          "internalType": "contract ISuperToken",
          "name": "_cashToken",
          "type": "address"
        },
        {
          "internalType": "contract ISuperToken",
          "name": "_armyToken",
          "type": "address"
        },
        {
          "internalType": "int96",
          "name": "_decay",
          "type": "int96"
        }
      ],
      "stateMutability": "nonpayable",
      "type": "constructor"
    },
    {
      "inputs": [],
      "name": "UnauthorizedHost",
      "type": "error"
    },
    {
      "inputs": [],
      "name": "STEP",
      "outputs": [
        {
          "internalType": "uint256",
          "name": "",
          "type": "uint256"
        }
      ],
      "stateMutability": "view",
      "type": "function"
    },
    {
      "inputs": [],
      "name": "_host",
      "outputs": [
        {
          "internalType": "contract ISuperfluid",
          "name": "",
          "type": "address"
        }
      ],
      "stateMutability": "view",
      "type": "function"
    },
    {
      "inputs": [
        {
          "internalType": "contract ISuperToken",
          "name": "superToken",
          "type": "address"
        },
        {
          "internalType": "address",
          "name": "agreementClass",
          "type": "address"
        },
        {
          "internalType": "bytes32",
          "name": "",
          "type": "bytes32"
        },
        {
          "internalType": "bytes",
          "name": "agreementData",
          "type": "bytes"
        },
        {
          "internalType": "bytes",
          "name": "cbdata",
          "type": "bytes"
        },
        {
          "internalType": "bytes",
          "name": "ctx",
          "type": "bytes"
        }
      ],
      "name": "afterAgreementCreated",
      "outputs": [
        {
          "internalType": "bytes",
          "name": "newCtx",
          "type": "bytes"
        }
      ],
      "stateMutability": "nonpayable",
      "type": "function"
    },
    {
      "inputs": [
        {
          "internalType": "contract ISuperToken",
          "name": "superToken",
          "type": "address"
        },
        {
          "internalType": "address",
          "name": "agreementClass",
          "type": "address"
        },
        {
          "internalType": "bytes32",
          "name": "",
          "type": "bytes32"
        },
        {
          "internalType": "bytes",
          "name": "agreementData",
          "type": "bytes"
        },
        {
          "internalType": "bytes",
          "name": "cbdata",
          "type": "bytes"
        },
        {
          "internalType": "bytes",
          "name": "ctx",
          "type": "bytes"
        }
      ],
      "name": "afterAgreementTerminated",
      "outputs": [
        {
          "internalType": "bytes",
          "name": "newCtx",
          "type": "bytes"
        }
      ],
      "stateMutability": "nonpayable",
      "type": "function"
    },
    {
      "inputs": [
        {
          "internalType": "contract ISuperToken",
          "name": "superToken",
          "type": "address"
        },
        {
          "internalType": "address",
          "name": "agreementClass",
          "type": "address"
        },
        {
          "internalType": "bytes32",
          "name": "",
          "type": "bytes32"
        },
        {
          "internalType": "bytes",
          "name": "agreementData",
          "type": "bytes"
        },
        {
          "internalType": "bytes",
          "name": "cbdata",
          "type": "bytes"
        },
        {
          "internalType": "bytes",
          "name": "ctx",
          "type": "bytes"
        }
      ],
      "name": "afterAgreementUpdated",
      "outputs": [
        {
          "internalType": "bytes",
          "name": "newCtx",
          "type": "bytes"
        }
      ],
      "stateMutability": "nonpayable",
      "type": "function"
    },
    {
      "inputs": [],
      "name": "army",
      "outputs": [
        {
          "internalType": "uint256",
          "name": "",
          "type": "uint256"
        }
      ],
      "stateMutability": "view",
      "type": "function"
    },
    {
      "inputs": [],
      "name": "armyToken",
      "outputs": [
        {
          "internalType": "contract ISuperToken",
          "name": "",
          "type": "address"
        }
      ],
      "stateMutability": "view",
      "type": "function"
    },
    {
      "inputs": [
        {
          "internalType": "contract ISuperToken",
          "name": "superToken",
          "type": "address"
        },
        {
          "internalType": "address",
          "name": "agreementClass",
          "type": "address"
        },
        {
          "internalType": "bytes32",
          "name": "",
          "type": "bytes32"
        },
        {
          "internalType": "bytes",
          "name": "agreementData",
          "type": "bytes"
        },
        {
          "internalType": "bytes",
          "name": "",
          "type": "bytes"
        }
      ],
      "name": "beforeAgreementCreated",
      "outputs": [
        {
          "internalType": "bytes",
          "name": "",
          "type": "bytes"
        }
      ],
      "stateMutability": "view",
      "type": "function"
    },
    {
      "inputs": [
        {
          "internalType": "contract ISuperToken",
          "name": "superToken",
          "type": "address"
        },
        {
          "internalType": "address",
          "name": "agreementClass",
          "type": "address"
        },
        {
          "internalType": "bytes32",
          "name": "",
          "type": "bytes32"
        },
        {
          "internalType": "bytes",
          "name": "agreementData",
          "type": "bytes"
        },
        {
          "internalType": "bytes",
          "name": "",
          "type": "bytes"
        }
      ],
      "name": "beforeAgreementTerminated",
      "outputs": [
        {
          "internalType": "bytes",
          "name": "",
          "type": "bytes"
        }
      ],
      "stateMutability": "view",
      "type": "function"
    },
    {
      "inputs": [
        {
          "internalType": "contract ISuperToken",
          "name": "superToken",
          "type": "address"
        },
        {
          "internalType": "address",
          "name": "agreementClass",
          "type": "address"
        },
        {
          "internalType": "bytes32",
          "name": "",
          "type": "bytes32"
        },
        {
          "internalType": "bytes",
          "name": "agreementData",
          "type": "bytes"
        },
        {
          "internalType": "bytes",
          "name": "",
          "type": "bytes"
        }
      ],
      "name": "beforeAgreementUpdated",
      "outputs": [
        {
          "internalType": "bytes",
          "name": "",
          "type": "bytes"
        }
      ],
      "stateMutability": "view",
      "type": "function"
    },
    {
      "inputs": [],
      "name": "cashToken",
      "outputs": [
        {
          "internalType": "contract ISuperToken",
          "name": "",
          "type": "address"
        }
      ],
      "stateMutability": "view",
      "type": "function"
    },
    {
      "inputs": [
        {
          "internalType": "uint256",
          "name": "amount",
          "type": "uint256"
        }
      ],
      "name": "claim",
      "outputs": [],
      "stateMutability": "nonpayable",
      "type": "function"
    },
    {
      "inputs": [],
      "name": "decay",
      "outputs": [
        {
          "internalType": "int96",
          "name": "",
          "type": "int96"
        }
      ],
      "stateMutability": "view",
      "type": "function"
    },
    {
      "inputs": [
        {
          "internalType": "address",
          "name": "agreementClass",
          "type": "address"
        }
      ],
      "name": "isAcceptedAgreement",
      "outputs": [
        {
          "internalType": "bool",
          "name": "",
          "type": "bool"
        }
      ],
      "stateMutability": "view",
      "type": "function"
    },
    {
      "inputs": [
        {
          "internalType": "contract ISuperToken",
          "name": "superToken",
          "type": "address"
        }
      ],
      "name": "isAcceptedSuperToken",
      "outputs": [
        {
          "internalType": "bool",
          "name": "",
          "type": "bool"
        }
      ],
      "stateMutability": "view",
      "type": "function"
    },
    {
      "inputs": [],
      "name": "king",
      "outputs": [
        {
          "internalType": "address",
          "name": "",
          "type": "address"
        }
      ],
      "stateMutability": "view",
      "type": "function"
    },
    {
      "inputs": [
        {
          "internalType": "address",
          "name": "user",
          "type": "address"
        }
      ],
      "name": "rate",
      "outputs": [
        {
          "internalType": "int96",
          "name": "",
          "type": "int96"
        }
      ],
      "stateMutability": "nonpayable",
      "type": "function"
    },
    {
      "inputs": [],
      "name": "rate",
      "outputs": [
        {
          "internalType": "int96",
          "name": "",
          "type": "int96"
        }
      ],
      "stateMutability": "nonpayable",
      "type": "function"
    },
    {
      "inputs": [],
      "name": "taxRate",
      "outputs": [
        {
          "internalType": "int96",
          "name": "",
          "type": "int96"
        }
      ],
      "stateMutability": "nonpayable",
      "type": "function"
    },
    {
      "inputs": [
        {
          "internalType": "address",
          "name": "",
          "type": "address"
        },
        {
          "internalType": "address",
          "name": "from",
          "type": "address"
        },
        {
          "internalType": "address",
          "name": "",
          "type": "address"
        },
        {
          "internalType": "uint256",
          "name": "amount",
          "type": "uint256"
        },
        {
          "internalType": "bytes",
          "name": "",
          "type": "bytes"
        },
        {
          "internalType": "bytes",
          "name": "",
          "type": "bytes"
        }
      ],
      "name": "tokensReceived",
      "outputs": [],
      "stateMutability": "nonpayable",
      "type": "function"
    }
  ],
  "bytecode": "0x6101006040523480156200001257600080fd5b50604051620042e9380380620042e9833981810160405281019062000038919062000432565b8273ffffffffffffffffffffffffffffffffffffffff166320bc44256040518163ffffffff1660e01b8152600401602060405180830381865afa15801562000084573d6000803e3d6000fd5b505050506040513d601f19601f82011682018060405250810190620000aa9190620004bf565b6001806001836000806101000a81548173ffffffffffffffffffffffffffffffffffffffff021916908373ffffffffffffffffffffffffffffffffffffffff160217905550600060019050836200011157640200000000816200010e91906200052a565b90505b826200012d57640800000000816200012a91906200052a565b90505b816200014957642000000000816200014691906200052a565b90505b8473ffffffffffffffffffffffffffffffffffffffff1663ad3915c8826040518263ffffffff1660e01b815260040162000184919062000598565b600060405180830381600087803b1580156200019f57600080fd5b505af1158015620001b4573d6000803e3d6000fd5b5050505050505050508173ffffffffffffffffffffffffffffffffffffffff1660a08173ffffffffffffffffffffffffffffffffffffffff16815250508273ffffffffffffffffffffffffffffffffffffffff1660808173ffffffffffffffffffffffffffffffffffffffff1681525050670de0b6b3a7640000600b0b60e081600b0b81525050600060038190555080600260006101000a8154816bffffffffffffffffffffffff0219169083600b0b6bffffffffffffffffffffffff1602179055504260c0818152505033600460006101000a81548173ffffffffffffffffffffffffffffffffffffffff021916908373ffffffffffffffffffffffffffffffffffffffff16021790555060007fb281fc8c12954d22544db45de3159a39272895b169a852b314f9cc762e44c53b9050731820a4b7618bde71dce8cdc73aab6c95905fad2473ffffffffffffffffffffffffffffffffffffffff166329965a1d3083306040518463ffffffff1660e01b81526004016200033893929190620005e1565b600060405180830381600087803b1580156200035357600080fd5b505af115801562000368573d6000803e3d6000fd5b50505050505050506200061e565b600080fd5b600073ffffffffffffffffffffffffffffffffffffffff82169050919050565b6000620003a8826200037b565b9050919050565b6000620003bc826200039b565b9050919050565b620003ce81620003af565b8114620003da57600080fd5b50565b600081519050620003ee81620003c3565b92915050565b600081600b0b9050919050565b6200040c81620003f4565b81146200041857600080fd5b50565b6000815190506200042c8162000401565b92915050565b6000806000606084860312156200044e576200044d62000376565b5b60006200045e86828701620003dd565b93505060206200047186828701620003dd565b925050604062000484868287016200041b565b9150509250925092565b62000499816200039b565b8114620004a557600080fd5b50565b600081519050620004b9816200048e565b92915050565b600060208284031215620004d857620004d762000376565b5b6000620004e884828501620004a8565b91505092915050565b6000819050919050565b7f4e487b7100000000000000000000000000000000000000000000000000000000600052601160045260246000fd5b60006200053782620004f1565b91506200054483620004f1565b9250827fffffffffffffffffffffffffffffffffffffffffffffffffffffffffffffffff038211156200057c576200057b620004fb565b5b828201905092915050565b6200059281620004f1565b82525050565b6000602082019050620005af600083018462000587565b92915050565b620005c0816200039b565b82525050565b6000819050919050565b620005db81620005c6565b82525050565b6000606082019050620005f86000830186620005b5565b620006076020830185620005d0565b620006166040830184620005b5565b949350505050565b60805160a05160c05160e051613c05620006e460003960006115ee015260006115b80152600081816104280152818161060e015281816106650152818161099a01528181611716015261190b0152600081816105c301528181610e0e0152818161101301528181611249015281816112b8015281816113040152818161134b015281816113880152818161179e015281816118150152818161187b0152818161197d015281816119fa01528181611a780152818161220601526122500152613c056000f3fe608060405234801561001057600080fd5b506004361061012b5760003560e01c806354fac919116100ad578063884d1f4011610071578063884d1f401461036c578063a72246871461039c578063cc181ca8146103ba578063d86ed3e5146103d8578063f10e38af146104085761012b565b806354fac919146102b25780635f9e7d77146102d057806372ca8a3e14610300578063771a3a1d14610330578063852e5a0a1461034e5761012b565b80632c4e722e116100f45780632c4e722e146101fa57806330d9c91514610218578063379607f51461024857806353c11f991461026457806353d0f255146102945761012b565b806223de291461013057806301c09f571461014c5780630ba9d8ca1461017c5780631aa67abb146101ac578063230dbd29146101ca575b600080fd5b61014a600480360381019061014591906129e3565b610426565b005b61016660048036038101906101619190612ab2565b6104c8565b6040516101739190612afa565b60405180910390f35b61019660048036038101906101919190612ab2565b6105ba565b6040516101a39190612b31565b60405180910390f35b6101b4610663565b6040516101c19190612bab565b60405180910390f35b6101e460048036038101906101df9190612c3a565b610687565b6040516101f19190612dc2565b60405180910390f35b6102026107f3565b60405161020f9190612b31565b60405180910390f35b610232600480360381019061022d9190612de4565b610802565b60405161023f9190612dc2565b60405180910390f35b610262600480360381019061025d9190612ea0565b610998565b005b61027e60048036038101906102799190612c3a565b610a46565b60405161028b9190612dc2565b60405180910390f35b61029c610bd0565b6040516102a99190612edc565b60405180910390f35b6102ba610bd6565b6040516102c79190612b31565b60405180910390f35b6102ea60048036038101906102e59190612de4565b610be9565b6040516102f79190612dc2565b60405180910390f35b61031a60048036038101906103159190612ef7565b610d8d565b6040516103279190612afa565b60405180910390f35b610338610de3565b6040516103459190612b31565b60405180910390f35b610356610e57565b6040516103639190612f45565b60405180910390f35b61038660048036038101906103819190612de4565b610e7b565b6040516103939190612dc2565b60405180910390f35b6103a4611011565b6040516103b19190612bab565b60405180910390f35b6103c2611035565b6040516103cf9190612f6f565b60405180910390f35b6103f260048036038101906103ed9190612c3a565b61105b565b6040516103ff9190612dc2565b60405180910390f35b6104106111c7565b60405161041d9190612edc565b60405180910390f35b7f000000000000000000000000000000000000000000000000000000000000000073ffffffffffffffffffffffffffffffffffffffff163373ffffffffffffffffffffffffffffffffffffffff16146104b4576040517f08c379a00000000000000000000000000000000000000000000000000000000081526004016104ab90612fe7565b60405180910390fd5b6104be87866111cd565b5050505050505050565b60008060009054906101000a900473ffffffffffffffffffffffffffffffffffffffff1673ffffffffffffffffffffffffffffffffffffffff1663b6d200de7fa9214cc96615e0085d3bb077758db69497dc2dce3b2b1e97bc93c3d18d83efd36040518263ffffffff1660e01b81526004016105449190613016565b602060405180830381865afa158015610561573d6000803e3d6000fd5b505050506040513d601f19601f82011682018060405250810190610585919061306f565b73ffffffffffffffffffffffffffffffffffffffff168273ffffffffffffffffffffffffffffffffffffffff16149050919050565b600061060782307f000000000000000000000000000000000000000000000000000000000000000073ffffffffffffffffffffffffffffffffffffffff166114c79092919063ffffffff16565b61065230847f000000000000000000000000000000000000000000000000000000000000000073ffffffffffffffffffffffffffffffffffffffff166114c79092919063ffffffff16565b61065c91906130fa565b9050919050565b7f000000000000000000000000000000000000000000000000000000000000000081565b606060008054906101000a900473ffffffffffffffffffffffffffffffffffffffff1673ffffffffffffffffffffffffffffffffffffffff163373ffffffffffffffffffffffffffffffffffffffff161461070e576040517f2f2d36a700000000000000000000000000000000000000000000000000000000815260040160405180910390fd5b6107178a610d8d565b6107675782828080601f016020809104026020016040519081016040528093929190818152602001838380828437600081840152601f19601f8201169050808301925050505050505090506107e6565b610770896104c8565b6107c05782828080601f016020809104026020016040519081016040528093929190818152602001838380828437600081840152601f19601f8201169050808301925050505050505090506107e6565b600087878101906107d191906131a2565b5090506107e28b8288888888611567565b9150505b9998505050505050505050565b60006107fd6115a4565b905090565b606060008054906101000a900473ffffffffffffffffffffffffffffffffffffffff1673ffffffffffffffffffffffffffffffffffffffff163373ffffffffffffffffffffffffffffffffffffffff1614610889576040517f2f2d36a700000000000000000000000000000000000000000000000000000000815260040160405180910390fd5b61089288610d8d565b6108d3576040518060400160405280600281526020017f3078000000000000000000000000000000000000000000000000000000000000815250905061098d565b6108dc876104c8565b61091d576040518060400160405280600281526020017f3078000000000000000000000000000000000000000000000000000000000000815250905061098d565b6000858581019061092e91906131a2565b50905060008061095f83308d73ffffffffffffffffffffffffffffffffffffffff1661161c9092919063ffffffff16565b50509150915081816040516020016109789291906131e2565b60405160208183030381529060405293505050505b979650505050505050565b7f000000000000000000000000000000000000000000000000000000000000000073ffffffffffffffffffffffffffffffffffffffff166323b872dd3330846040518463ffffffff1660e01b81526004016109f59392919061320b565b6020604051808303816000875af1158015610a14573d6000803e3d6000fd5b505050506040513d601f19601f82011682018060405250810190610a38919061326e565b50610a4333826111cd565b50565b606060008054906101000a900473ffffffffffffffffffffffffffffffffffffffff1673ffffffffffffffffffffffffffffffffffffffff163373ffffffffffffffffffffffffffffffffffffffff1614610ae75782828080601f016020809104026020016040519081016040528093929190818152602001838380828437600081840152601f19601f820116905080830192505050505050509050610bc3565b610af08a610d8d565b610b405782828080601f016020809104026020016040519081016040528093929190818152602001838380828437600081840152601f19601f820116905080830192505050505050509050610bc3565b610b49896104c8565b610b995782828080601f016020809104026020016040519081016040528093929190818152602001838380828437600081840152601f19601f820116905080830192505050505050509050610bc3565b6000808888810190610bab91906131a2565b91509150610bbe8c83838a8a8a8a6116c8565b925050505b9998505050505050505050565b60035481565b600260009054906101000a9004600b0b81565b606060008054906101000a900473ffffffffffffffffffffffffffffffffffffffff1673ffffffffffffffffffffffffffffffffffffffff163373ffffffffffffffffffffffffffffffffffffffff1614610c7b576040518060400160405280600281526020017f30780000000000000000000000000000000000000000000000000000000000008152509050610d82565b610c8488610d8d565b610cc5576040518060400160405280600281526020017f30780000000000000000000000000000000000000000000000000000000000008152509050610d82565b610cce876104c8565b610d0f576040518060400160405280600281526020017f30780000000000000000000000000000000000000000000000000000000000008152509050610d82565b6000808686810190610d2191906131a2565b91509150600080610d5384848e73ffffffffffffffffffffffffffffffffffffffff1661161c9092919063ffffffff16565b5050915091508181604051602001610d6c9291906131e2565b6040516020818303038152906040529450505050505b979650505050505050565b6000600160008373ffffffffffffffffffffffffffffffffffffffff1673ffffffffffffffffffffffffffffffffffffffff16815260200190815260200160002060009054906101000a900460ff169050919050565b6000610e5230600460009054906101000a900473ffffffffffffffffffffffffffffffffffffffff167f000000000000000000000000000000000000000000000000000000000000000073ffffffffffffffffffffffffffffffffffffffff166114c79092919063ffffffff16565b905090565b60008054906101000a900473ffffffffffffffffffffffffffffffffffffffff1681565b606060008054906101000a900473ffffffffffffffffffffffffffffffffffffffff1673ffffffffffffffffffffffffffffffffffffffff163373ffffffffffffffffffffffffffffffffffffffff1614610f02576040517f2f2d36a700000000000000000000000000000000000000000000000000000000815260040160405180910390fd5b610f0b88610d8d565b610f4c576040518060400160405280600281526020017f30780000000000000000000000000000000000000000000000000000000000008152509050611006565b610f55876104c8565b610f96576040518060400160405280600281526020017f30780000000000000000000000000000000000000000000000000000000000008152509050611006565b60008585810190610fa791906131a2565b509050600080610fd883308d73ffffffffffffffffffffffffffffffffffffffff1661161c9092919063ffffffff16565b5050915091508181604051602001610ff19291906131e2565b60405160208183030381529060405293505050505b979650505050505050565b7f000000000000000000000000000000000000000000000000000000000000000081565b600460009054906101000a900473ffffffffffffffffffffffffffffffffffffffff1681565b606060008054906101000a900473ffffffffffffffffffffffffffffffffffffffff1673ffffffffffffffffffffffffffffffffffffffff163373ffffffffffffffffffffffffffffffffffffffff16146110e2576040517f2f2d36a700000000000000000000000000000000000000000000000000000000815260040160405180910390fd5b6110eb8a610d8d565b61113b5782828080601f016020809104026020016040519081016040528093929190818152602001838380828437600081840152601f19601f8201169050808301925050505050505090506111ba565b611144896104c8565b6111945782828080601f016020809104026020016040519081016040528093929190818152602001838380828437600081840152601f19601f8201169050808301925050505050505090506111ba565b600087878101906111a591906131a2565b5090506111b68b828888888861186b565b9150505b9998505050505050505050565b60055481565b6003546005546111dd919061329b565b811161121e576040517f08c379a00000000000000000000000000000000000000000000000000000000081526004016112159061333d565b60405180910390fd5b600061128d30600460009054906101000a900473ffffffffffffffffffffffffffffffffffffffff167f000000000000000000000000000000000000000000000000000000000000000073ffffffffffffffffffffffffffffffffffffffff166114c79092919063ffffffff16565b90506112fc30600460009054906101000a900473ffffffffffffffffffffffffffffffffffffffff167f000000000000000000000000000000000000000000000000000000000000000073ffffffffffffffffffffffffffffffffffffffff16611acc9092919063ffffffff16565b5061134883827f000000000000000000000000000000000000000000000000000000000000000073ffffffffffffffffffffffffffffffffffffffff16611c7f9092919063ffffffff16565b507f000000000000000000000000000000000000000000000000000000000000000073ffffffffffffffffffffffffffffffffffffffff1663a9059cbb847f000000000000000000000000000000000000000000000000000000000000000073ffffffffffffffffffffffffffffffffffffffff166370a08231306040518263ffffffff1660e01b81526004016113df9190612f6f565b602060405180830381865afa1580156113fc573d6000803e3d6000fd5b505050506040513d601f19601f820116820180604052508101906114209190613372565b6040518363ffffffff1660e01b815260040161143d92919061339f565b6020604051808303816000875af115801561145c573d6000803e3d6000fd5b505050506040513d601f19601f82011682018060405250810190611480919061326e565b5082600460006101000a81548173ffffffffffffffffffffffffffffffffffffffff021916908373ffffffffffffffffffffffffffffffffffffffff160217905550505050565b6000806114d385611e32565b9150508073ffffffffffffffffffffffffffffffffffffffff1663e6a1e8888686866040518463ffffffff1660e01b8152600401611513939291906133c8565b608060405180830381865afa158015611530573d6000803e3d6000fd5b505050506040513d601f19601f82011682018060405250810190611554919061342b565b9091925090505080925050509392505050565b60606040517f08c379a000000000000000000000000000000000000000000000000000000000815260040161159b906134de565b60405180910390fd5b6000600260009054906101000a9004600b0b7f0000000000000000000000000000000000000000000000000000000000000000426115e291906134fe565b6115ec9190613532565b7f00000000000000000000000000000000000000000000000000000000000000006116179190613621565b905090565b600080600080600061162d88611e32565b9150508073ffffffffffffffffffffffffffffffffffffffff1663e6a1e8888989896040518463ffffffff1660e01b815260040161166d939291906133c8565b608060405180830381865afa15801561168a573d6000803e3d6000fd5b505050506040513d601f19601f820116820180604052508101906116ae919061342b565b809550819650829750839850505050505093509350935093565b606061175b308885858080601f016020809104026020016040519081016040528093929190818152602001838380828437600081840152601f19601f820116905080830192505050505050507f000000000000000000000000000000000000000000000000000000000000000073ffffffffffffffffffffffffffffffffffffffff16612073909392919063ffffffff16565b905060006117676121da565b9050600081600b0b146117eb576117e3600460009054906101000a900473ffffffffffffffffffffffffffffffffffffffff1682847f000000000000000000000000000000000000000000000000000000000000000073ffffffffffffffffffffffffffffffffffffffff166122be909392919063ffffffff16565b91508161185e565b61185a30600460009054906101000a900473ffffffffffffffffffffffffffffffffffffffff16847f000000000000000000000000000000000000000000000000000000000000000073ffffffffffffffffffffffffffffffffffffffff16612073909392919063ffffffff16565b9150815b5050979650505050505050565b6060611950866118c46118bf89307f000000000000000000000000000000000000000000000000000000000000000073ffffffffffffffffffffffffffffffffffffffff166114c79092919063ffffffff16565b612425565b85858080601f016020809104026020016040519081016040528093929190818152602001838380828437600081840152601f19601f820116905080830192505050505050507f000000000000000000000000000000000000000000000000000000000000000073ffffffffffffffffffffffffffffffffffffffff16612454909392919063ffffffff16565b905060006119c130600460009054906101000a900473ffffffffffffffffffffffffffffffffffffffff167f000000000000000000000000000000000000000000000000000000000000000073ffffffffffffffffffffffffffffffffffffffff166114c79092919063ffffffff16565b600b0b14611a4757611a3f600460009054906101000a900473ffffffffffffffffffffffffffffffffffffffff166119f76121da565b837f000000000000000000000000000000000000000000000000000000000000000073ffffffffffffffffffffffffffffffffffffffff166122be909392919063ffffffff16565b905080611ac1565b611abd600460009054906101000a900473ffffffffffffffffffffffffffffffffffffffff16611a756121da565b837f000000000000000000000000000000000000000000000000000000000000000073ffffffffffffffffffffffffffffffffffffffff16612454909392919063ffffffff16565b9050805b509695505050505050565b6000806000611ada866125bb565b915091508173ffffffffffffffffffffffffffffffffffffffff166339255d5b828373ffffffffffffffffffffffffffffffffffffffff1663b4b333c68a8a8a600067ffffffffffffffff811115611b3557611b346136a1565b5b6040519080825280601f01601f191660200182016040528015611b675781602001600182028036833780820191505090505b50604051602401611b7b94939291906136d0565b604051602081830303815290604052915060e01b6020820180517bffffffffffffffffffffffffffffffffffffffffffffffffffffffff8381831617835250505050600067ffffffffffffffff811115611bd857611bd76136a1565b5b6040519080825280601f01601f191660200182016040528015611c0a5781602001600182028036833780820191505090505b506040518463ffffffff1660e01b8152600401611c299392919061373d565b6000604051808303816000875af1158015611c48573d6000803e3d6000fd5b505050506040513d6000823e3d601f19601f82011682018060405250810190611c719190613874565b506001925050509392505050565b6000806000611c8d866125bb565b915091508173ffffffffffffffffffffffffffffffffffffffff166339255d5b828373ffffffffffffffffffffffffffffffffffffffff166362fc305e8a8a8a600067ffffffffffffffff811115611ce857611ce76136a1565b5b6040519080825280601f01601f191660200182016040528015611d1a5781602001600182028036833780820191505090505b50604051602401611d2e94939291906138bd565b604051602081830303815290604052915060e01b6020820180517bffffffffffffffffffffffffffffffffffffffffffffffffffffffff8381831617835250505050600067ffffffffffffffff811115611d8b57611d8a6136a1565b5b6040519080825280601f01601f191660200182016040528015611dbd5781602001600182028036833780820191505090505b506040518463ffffffff1660e01b8152600401611ddc9392919061373d565b6000604051808303816000875af1158015611dfb573d6000803e3d6000fd5b505050506040513d6000823e3d601f19601f82011682018060405250810190611e249190613874565b506001925050509392505050565b6000807f65599bf746e17a00ea62e3610586992d88101b78eec3cf380706621fb97ea8375491507fb969d79d88acd02d04ed7ee7d43b949e7daf093d363abcfbbc43dfdfd1ce969a549050600073ffffffffffffffffffffffffffffffffffffffff168173ffffffffffffffffffffffffffffffffffffffff1603611ff457600073ffffffffffffffffffffffffffffffffffffffff168273ffffffffffffffffffffffffffffffffffffffff1603611f57578273ffffffffffffffffffffffffffffffffffffffff166320bc44256040518163ffffffff1660e01b8152600401602060405180830381865afa158015611f30573d6000803e3d6000fd5b505050506040513d601f19601f82011682018060405250810190611f54919061391e565b91505b8173ffffffffffffffffffffffffffffffffffffffff1663b6d200de7fa9214cc96615e0085d3bb077758db69497dc2dce3b2b1e97bc93c3d18d83efd36040518263ffffffff1660e01b8152600401611fb09190613993565b602060405180830381865afa158015611fcd573d6000803e3d6000fd5b505050506040513d601f19601f82011682018060405250810190611ff1919061306f565b90505b600073ffffffffffffffffffffffffffffffffffffffff168273ffffffffffffffffffffffffffffffffffffffff1603612031576120306139ae565b5b600073ffffffffffffffffffffffffffffffffffffffff168173ffffffffffffffffffffffffffffffffffffffff160361206e5761206d6139ae565b5b915091565b6060600080612081876125bb565b915091508173ffffffffffffffffffffffffffffffffffffffff16634329d293828373ffffffffffffffffffffffffffffffffffffffff1663b4b333c68b8b8b600067ffffffffffffffff8111156120dc576120db6136a1565b5b6040519080825280601f01601f19166020018201604052801561210e5781602001600182028036833780820191505090505b5060405160240161212294939291906136d0565b604051602081830303815290604052915060e01b6020820180517bffffffffffffffffffffffffffffffffffffffffffffffffffffffff8381831617835250505050876040518463ffffffff1660e01b815260040161218393929190613a29565b6000604051808303816000875af11580156121a2573d6000803e3d6000fd5b505050506040513d6000823e3d601f19601f820116820180604052508101906121cb9190613a81565b50809350505050949350505050565b60008061224a30600460009054906101000a900473ffffffffffffffffffffffffffffffffffffffff167f000000000000000000000000000000000000000000000000000000000000000073ffffffffffffffffffffffffffffffffffffffff166114c79092919063ffffffff16565b612293307f000000000000000000000000000000000000000000000000000000000000000073ffffffffffffffffffffffffffffffffffffffff1661284290919063ffffffff16565b61229d9190613af9565b90506064605a826122ae9190613532565b6122b891906130fa565b91505090565b60606000806122cc876125bb565b915091508173ffffffffffffffffffffffffffffffffffffffff16634329d293828373ffffffffffffffffffffffffffffffffffffffff166350209a628b8b8b600067ffffffffffffffff811115612327576123266136a1565b5b6040519080825280601f01601f1916602001820160405280156123595781602001600182028036833780820191505090505b5060405160240161236d94939291906138bd565b604051602081830303815290604052915060e01b6020820180517bffffffffffffffffffffffffffffffffffffffffffffffffffffffff8381831617835250505050876040518463ffffffff1660e01b81526004016123ce93929190613a29565b6000604051808303816000875af11580156123ed573d6000803e3d6000fd5b505050506040513d6000823e3d601f19601f820116820180604052508101906124169190613a81565b50809350505050949350505050565b6000670de0b6b3a76400006124386115a4565b836124439190613532565b61244d91906130fa565b9050919050565b6060600080612462876125bb565b915091508173ffffffffffffffffffffffffffffffffffffffff16634329d293828373ffffffffffffffffffffffffffffffffffffffff166362fc305e8b8b8b600067ffffffffffffffff8111156124bd576124bc6136a1565b5b6040519080825280601f01601f1916602001820160405280156124ef5781602001600182028036833780820191505090505b5060405160240161250394939291906138bd565b604051602081830303815290604052915060e01b6020820180517bffffffffffffffffffffffffffffffffffffffffffffffffffffffff8381831617835250505050876040518463ffffffff1660e01b815260040161256493929190613a29565b6000604051808303816000875af1158015612583573d6000803e3d6000fd5b505050506040513d6000823e3d601f19601f820116820180604052508101906125ac9190613a81565b50809350505050949350505050565b6000807f65599bf746e17a00ea62e3610586992d88101b78eec3cf380706621fb97ea8375491507fb969d79d88acd02d04ed7ee7d43b949e7daf093d363abcfbbc43dfdfd1ce969a549050600073ffffffffffffffffffffffffffffffffffffffff168173ffffffffffffffffffffffffffffffffffffffff16036127c357600073ffffffffffffffffffffffffffffffffffffffff168273ffffffffffffffffffffffffffffffffffffffff16036126e0578273ffffffffffffffffffffffffffffffffffffffff166320bc44256040518163ffffffff1660e01b8152600401602060405180830381865afa1580156126b9573d6000803e3d6000fd5b505050506040513d601f19601f820116820180604052508101906126dd919061391e565b91505b8173ffffffffffffffffffffffffffffffffffffffff1663b6d200de7fa9214cc96615e0085d3bb077758db69497dc2dce3b2b1e97bc93c3d18d83efd36040518263ffffffff1660e01b81526004016127399190613993565b602060405180830381865afa158015612756573d6000803e3d6000fd5b505050506040513d601f19601f8201168201806040525081019061277a919061306f565b9050817f65599bf746e17a00ea62e3610586992d88101b78eec3cf380706621fb97ea83755807fb969d79d88acd02d04ed7ee7d43b949e7daf093d363abcfbbc43dfdfd1ce969a555b600073ffffffffffffffffffffffffffffffffffffffff168273ffffffffffffffffffffffffffffffffffffffff1603612800576127ff6139ae565b5b600073ffffffffffffffffffffffffffffffffffffffff168173ffffffffffffffffffffffffffffffffffffffff160361283d5761283c6139ae565b5b915091565b60008061284e84611e32565b9150508073ffffffffffffffffffffffffffffffffffffffff1663e8e7e2d185856040518363ffffffff1660e01b815260040161288c929190613b79565b602060405180830381865afa1580156128a9573d6000803e3d6000fd5b505050506040513d601f19601f820116820180604052508101906128cd9190613ba2565b91505092915050565b6000604051905090565b600080fd5b600080fd5b600073ffffffffffffffffffffffffffffffffffffffff82169050919050565b6000612915826128ea565b9050919050565b6129258161290a565b811461293057600080fd5b50565b6000813590506129428161291c565b92915050565b6000819050919050565b61295b81612948565b811461296657600080fd5b50565b60008135905061297881612952565b92915050565b600080fd5b600080fd5b600080fd5b60008083601f8401126129a3576129a261297e565b5b8235905067ffffffffffffffff8111156129c0576129bf612983565b5b6020830191508360018202830111156129dc576129db612988565b5b9250929050565b60008060008060008060008060c0898b031215612a0357612a026128e0565b5b6000612a118b828c01612933565b9850506020612a228b828c01612933565b9750506040612a338b828c01612933565b9650506060612a448b828c01612969565b955050608089013567ffffffffffffffff811115612a6557612a646128e5565b5b612a718b828c0161298d565b945094505060a089013567ffffffffffffffff811115612a9457612a936128e5565b5b612aa08b828c0161298d565b92509250509295985092959890939650565b600060208284031215612ac857612ac76128e0565b5b6000612ad684828501612933565b91505092915050565b60008115159050919050565b612af481612adf565b82525050565b6000602082019050612b0f6000830184612aeb565b92915050565b600081600b0b9050919050565b612b2b81612b15565b82525050565b6000602082019050612b466000830184612b22565b92915050565b6000819050919050565b6000612b71612b6c612b67846128ea565b612b4c565b6128ea565b9050919050565b6000612b8382612b56565b9050919050565b6000612b9582612b78565b9050919050565b612ba581612b8a565b82525050565b6000602082019050612bc06000830184612b9c565b92915050565b6000612bd18261290a565b9050919050565b612be181612bc6565b8114612bec57600080fd5b50565b600081359050612bfe81612bd8565b92915050565b6000819050919050565b612c1781612c04565b8114612c2257600080fd5b50565b600081359050612c3481612c0e565b92915050565b600080600080600080600080600060c08a8c031215612c5c57612c5b6128e0565b5b6000612c6a8c828d01612bef565b9950506020612c7b8c828d01612933565b9850506040612c8c8c828d01612c25565b97505060608a013567ffffffffffffffff811115612cad57612cac6128e5565b5b612cb98c828d0161298d565b965096505060808a013567ffffffffffffffff811115612cdc57612cdb6128e5565b5b612ce88c828d0161298d565b945094505060a08a013567ffffffffffffffff811115612d0b57612d0a6128e5565b5b612d178c828d0161298d565b92509250509295985092959850929598565b600081519050919050565b600082825260208201905092915050565b60005b83811015612d63578082015181840152602081019050612d48565b83811115612d72576000848401525b50505050565b6000601f19601f8301169050919050565b6000612d9482612d29565b612d9e8185612d34565b9350612dae818560208601612d45565b612db781612d78565b840191505092915050565b60006020820190508181036000830152612ddc8184612d89565b905092915050565b600080600080600080600060a0888a031215612e0357612e026128e0565b5b6000612e118a828b01612bef565b9750506020612e228a828b01612933565b9650506040612e338a828b01612c25565b955050606088013567ffffffffffffffff811115612e5457612e536128e5565b5b612e608a828b0161298d565b9450945050608088013567ffffffffffffffff811115612e8357612e826128e5565b5b612e8f8a828b0161298d565b925092505092959891949750929550565b600060208284031215612eb657612eb56128e0565b5b6000612ec484828501612969565b91505092915050565b612ed681612948565b82525050565b6000602082019050612ef16000830184612ecd565b92915050565b600060208284031215612f0d57612f0c6128e0565b5b6000612f1b84828501612bef565b91505092915050565b6000612f2f82612b78565b9050919050565b612f3f81612f24565b82525050565b6000602082019050612f5a6000830184612f36565b92915050565b612f698161290a565b82525050565b6000602082019050612f846000830184612f60565b92915050565b600082825260208201905092915050565b7f506c656173652073656e642074686520726967687420746f6b656e2100000000600082015250565b6000612fd1601c83612f8a565b9150612fdc82612f9b565b602082019050919050565b6000602082019050818103600083015261300081612fc4565b9050919050565b61301081612c04565b82525050565b600060208201905061302b6000830184613007565b92915050565b600061303c8261290a565b9050919050565b61304c81613031565b811461305757600080fd5b50565b60008151905061306981613043565b92915050565b600060208284031215613085576130846128e0565b5b60006130938482850161305a565b91505092915050565b7f4e487b7100000000000000000000000000000000000000000000000000000000600052601260045260246000fd5b7f4e487b7100000000000000000000000000000000000000000000000000000000600052601160045260246000fd5b600061310582612b15565b915061311083612b15565b9250826131205761311f61309c565b5b600160000383147fffffffffffffffffffffffffffffffffffffffff80000000000000000000000083141615613159576131586130cb565b5b828205905092915050565b600061316f826128ea565b9050919050565b61317f81613164565b811461318a57600080fd5b50565b60008135905061319c81613176565b92915050565b600080604083850312156131b9576131b86128e0565b5b60006131c78582860161318d565b92505060206131d88582860161318d565b9150509250929050565b60006040820190506131f76000830185612ecd565b6132046020830184612b22565b9392505050565b60006060820190506132206000830186612f60565b61322d6020830185612f60565b61323a6040830184612ecd565b949350505050565b61324b81612adf565b811461325657600080fd5b50565b60008151905061326881613242565b92915050565b600060208284031215613284576132836128e0565b5b600061329284828501613259565b91505092915050565b60006132a682612948565b91506132b183612948565b9250827fffffffffffffffffffffffffffffffffffffffffffffffffffffffffffffffff038211156132e6576132e56130cb565b5b828201905092915050565b7f73656e64206d6f7265206d6f6e65790000000000000000000000000000000000600082015250565b6000613327600f83612f8a565b9150613332826132f1565b602082019050919050565b600060208201905081810360008301526133568161331a565b9050919050565b60008151905061336c81612952565b92915050565b600060208284031215613388576133876128e0565b5b60006133968482850161335d565b91505092915050565b60006040820190506133b46000830185612f60565b6133c16020830184612ecd565b9392505050565b60006060820190506133dd6000830186612b9c565b6133ea6020830185612f60565b6133f76040830184612f60565b949350505050565b61340881612b15565b811461341357600080fd5b50565b600081519050613425816133ff565b92915050565b60008060008060808587031215613445576134446128e0565b5b60006134538782880161335d565b945050602061346487828801613416565b93505060406134758782880161335d565b92505060606134868782880161335d565b91505092959194509250565b7f63616e27742075706461746520736f7272792062796500000000000000000000600082015250565b60006134c8601683612f8a565b91506134d382613492565b602082019050919050565b600060208201905081810360008301526134f7816134bb565b9050919050565b600061350982612948565b915061351483612948565b925082821015613527576135266130cb565b5b828203905092915050565b600061353d82612b15565b915061354883612b15565b9250826b7fffffffffffffffffffffff0482116000841360008413161615613573576135726130cb565b5b817fffffffffffffffffffffffffffffffffffffffff80000000000000000000000005831260008412600084131616156135b0576135af6130cb565b5b827fffffffffffffffffffffffffffffffffffffffff80000000000000000000000005821260008413600084121616156135ed576135ec6130cb565b5b826b7fffffffffffffffffffffff0582126000841260008412161615613616576136156130cb565b5b828202905092915050565b600061362c82612b15565b915061363783612b15565b9250827fffffffffffffffffffffffffffffffffffffffff80000000000000000000000001821260008412151615613672576136716130cb565b5b826b7fffffffffffffffffffffff018213600084121615613696576136956130cb565b5b828203905092915050565b7f4e487b7100000000000000000000000000000000000000000000000000000000600052604160045260246000fd5b60006080820190506136e56000830187612b9c565b6136f26020830186612f60565b6136ff6040830185612f60565b81810360608301526137118184612d89565b905095945050505050565b600061372782612b78565b9050919050565b6137378161371c565b82525050565b6000606082019050613752600083018661372e565b81810360208301526137648185612d89565b905081810360408301526137788184612d89565b9050949350505050565b600080fd5b61379082612d78565b810181811067ffffffffffffffff821117156137af576137ae6136a1565b5b80604052505050565b60006137c26128d6565b90506137ce8282613787565b919050565b600067ffffffffffffffff8211156137ee576137ed6136a1565b5b6137f782612d78565b9050602081019050919050565b6000613817613812846137d3565b6137b8565b90508281526020810184848401111561383357613832613782565b5b61383e848285612d45565b509392505050565b600082601f83011261385b5761385a61297e565b5b815161386b848260208601613804565b91505092915050565b60006020828403121561388a576138896128e0565b5b600082015167ffffffffffffffff8111156138a8576138a76128e5565b5b6138b484828501613846565b91505092915050565b60006080820190506138d26000830187612b9c565b6138df6020830186612f60565b6138ec6040830185612b22565b81810360608301526138fe8184612d89565b905095945050505050565b6000815190506139188161291c565b92915050565b600060208284031215613934576139336128e0565b5b600061394284828501613909565b91505092915050565b6000819050919050565b60008160001b9050919050565b600061397d6139786139738461394b565b613955565b612c04565b9050919050565b61398d81613962565b82525050565b60006020820190506139a86000830184613984565b92915050565b7f4e487b7100000000000000000000000000000000000000000000000000000000600052600160045260246000fd5b7f3078000000000000000000000000000000000000000000000000000000000000600082015250565b6000613a13600283612d34565b9150613a1e826139dd565b602082019050919050565b6000608082019050613a3e600083018661372e565b8181036020830152613a508185612d89565b90508181036040830152613a6381613a06565b90508181036060830152613a778184612d89565b9050949350505050565b60008060408385031215613a9857613a976128e0565b5b600083015167ffffffffffffffff811115613ab657613ab56128e5565b5b613ac285828601613846565b925050602083015167ffffffffffffffff811115613ae357613ae26128e5565b5b613aef85828601613846565b9150509250929050565b6000613b0482612b15565b9150613b0f83612b15565b9250816b7fffffffffffffffffffffff03831360008312151615613b3657613b356130cb565b5b817fffffffffffffffffffffffffffffffffffffffff800000000000000000000000038312600083121615613b6e57613b6d6130cb565b5b828201905092915050565b6000604082019050613b8e6000830185612b9c565b613b9b6020830184612f60565b9392505050565b600060208284031215613bb857613bb76128e0565b5b6000613bc684828501613416565b9150509291505056fea26469706673582212201a1a614230aede728a2b6a3cb7250abef86dddc7210e012c596594d86d712e0664736f6c634300080e0033",
  "linkReferences": {},
  "deployedLinkReferences": {}
}